{
	"lessons/practiceMath.sol": {
		"PracticeMathc": {
			"abi": [
				{
					"inputs": [],
					"name": "Divide",
					"outputs": [
						{
							"internalType": "uint256",
							"name": "",
							"type": "uint256"
						}
					],
					"stateMutability": "pure",
					"type": "function"
				},
				{
					"inputs": [],
					"name": "Modulo",
					"outputs": [
						{
							"internalType": "uint256",
							"name": "",
							"type": "uint256"
						}
					],
					"stateMutability": "pure",
					"type": "function"
				},
				{
					"inputs": [],
					"name": "Multiply",
					"outputs": [
						{
							"internalType": "uint256",
							"name": "",
							"type": "uint256"
						}
					],
					"stateMutability": "pure",
					"type": "function"
				},
				{
					"inputs": [],
					"name": "Substract",
					"outputs": [
						{
							"internalType": "uint256",
							"name": "",
							"type": "uint256"
						}
					],
					"stateMutability": "pure",
					"type": "function"
				},
				{
					"inputs": [],
					"name": "add",
					"outputs": [
						{
							"internalType": "uint256",
							"name": "",
							"type": "uint256"
						}
					],
					"stateMutability": "pure",
					"type": "function"
				},
				{
					"inputs": [],
					"name": "double",
					"outputs": [
						{
							"internalType": "uint256",
							"name": "",
							"type": "uint256"
						}
					],
					"stateMutability": "pure",
					"type": "function"
				},
				{
					"inputs": [],
					"name": "half",
					"outputs": [
						{
							"internalType": "uint256",
							"name": "",
							"type": "uint256"
						}
					],
					"stateMutability": "pure",
					"type": "function"
				},
				{
					"inputs": [],
					"name": "isEqual",
					"outputs": [
						{
							"internalType": "bool",
							"name": "",
							"type": "bool"
						}
					],
					"stateMutability": "pure",
					"type": "function"
				},
				{
					"inputs": [],
					"name": "isGreater",
					"outputs": [
						{
							"internalType": "bool",
							"name": "",
							"type": "bool"
						}
					],
					"stateMutability": "pure",
					"type": "function"
				},
				{
					"inputs": [],
					"name": "power",
					"outputs": [
						{
							"internalType": "uint256",
							"name": "",
							"type": "uint256"
						}
					],
					"stateMutability": "pure",
					"type": "function"
				}
			],
			"devdoc": {
				"kind": "dev",
				"methods": {},
				"version": 1
			},
			"evm": {
				"assembly": "    /* \"lessons/practiceMath.sol\":29:1486  contract PracticeMathc{... */\n  mstore(0x40, 0x80)\n  callvalue\n  dup1\n  iszero\n  tag_1\n  jumpi\n  revert(0x00, 0x00)\ntag_1:\n  pop\n  dataSize(sub_0)\n  dup1\n  dataOffset(sub_0)\n  0x00\n  codecopy\n  0x00\n  return\nstop\n\nsub_0: assembly {\n        /* \"lessons/practiceMath.sol\":29:1486  contract PracticeMathc{... */\n      mstore(0x40, 0x80)\n      callvalue\n      dup1\n      iszero\n      tag_1\n      jumpi\n      revert(0x00, 0x00)\n    tag_1:\n      pop\n      jumpi(tag_2, lt(calldatasize, 0x04))\n      shr(0xe0, calldataload(0x00))\n      dup1\n      0x8fdb7189\n      gt\n      tag_13\n      jumpi\n      dup1\n      0x8fdb7189\n      eq\n      tag_8\n      jumpi\n      dup1\n      0xacbe8452\n      eq\n      tag_9\n      jumpi\n      dup1\n      0xe04dd33c\n      eq\n      tag_10\n      jumpi\n      dup1\n      0xefa31539\n      eq\n      tag_11\n      jumpi\n      dup1\n      0xf6a6462c\n      eq\n      tag_12\n      jumpi\n      jump(tag_2)\n    tag_13:\n      dup1\n      0x1bdf0cdc\n      eq\n      tag_3\n      jumpi\n      dup1\n      0x4799e6d8\n      eq\n      tag_4\n      jumpi\n      dup1\n      0x4a4d59fa\n      eq\n      tag_5\n      jumpi\n      dup1\n      0x4f2be91f\n      eq\n      tag_6\n      jumpi\n      dup1\n      0x72b38ffc\n      eq\n      tag_7\n      jumpi\n    tag_2:\n      revert(0x00, 0x00)\n        /* \"lessons/practiceMath.sol\":931:1048  function isGreater() public pure returns(bool){... */\n    tag_3:\n      tag_14\n      tag_15\n      jump\t// in\n    tag_14:\n      mload(0x40)\n      tag_16\n      swap2\n      swap1\n      tag_17\n      jump\t// in\n    tag_16:\n      mload(0x40)\n      dup1\n      swap2\n      sub\n      swap1\n      return\n        /* \"lessons/practiceMath.sol\":371:488  function Multiply() public pure returns (uint){... */\n    tag_4:\n      tag_18\n      tag_19\n      jump\t// in\n    tag_18:\n      mload(0x40)\n      tag_20\n      swap2\n      swap1\n      tag_21\n      jump\t// in\n    tag_20:\n      mload(0x40)\n      dup1\n      swap2\n      sub\n      swap1\n      return\n        /* \"lessons/practiceMath.sol\":793:895  function power() public pure returns(uint){... */\n    tag_5:\n      tag_22\n      tag_23\n      jump\t// in\n    tag_22:\n      mload(0x40)\n      tag_24\n      swap2\n      swap1\n      tag_21\n      jump\t// in\n    tag_24:\n      mload(0x40)\n      dup1\n      swap2\n      sub\n      swap1\n      return\n        /* \"lessons/practiceMath.sol\":86:196  function add() public pure returns (uint){... */\n    tag_6:\n      tag_25\n      tag_26\n      jump\t// in\n    tag_25:\n      mload(0x40)\n      tag_27\n      swap2\n      swap1\n      tag_21\n      jump\t// in\n    tag_27:\n      mload(0x40)\n      dup1\n      swap2\n      sub\n      swap1\n      return\n        /* \"lessons/practiceMath.sol\":513:628  function Divide()public pure returns (uint){... */\n    tag_7:\n      tag_28\n      tag_29\n      jump\t// in\n    tag_28:\n      mload(0x40)\n      tag_30\n      swap2\n      swap1\n      tag_21\n      jump\t// in\n    tag_30:\n      mload(0x40)\n      dup1\n      swap2\n      sub\n      swap1\n      return\n        /* \"lessons/practiceMath.sol\":1253:1351  function double() public pure returns ( uint){... */\n    tag_8:\n      tag_31\n      tag_32\n      jump\t// in\n    tag_31:\n      mload(0x40)\n      tag_33\n      swap2\n      swap1\n      tag_21\n      jump\t// in\n    tag_33:\n      mload(0x40)\n      dup1\n      swap2\n      sub\n      swap1\n      return\n        /* \"lessons/practiceMath.sol\":1084:1217  function isEqual() public pure returns ( bool){... */\n    tag_9:\n      tag_34\n      tag_35\n      jump\t// in\n    tag_34:\n      mload(0x40)\n      tag_36\n      swap2\n      swap1\n      tag_17\n      jump\t// in\n    tag_36:\n      mload(0x40)\n      dup1\n      swap2\n      sub\n      swap1\n      return\n        /* \"lessons/practiceMath.sol\":226:344  function Substract() public pure returns (uint){... */\n    tag_10:\n      tag_37\n      tag_38\n      jump\t// in\n    tag_37:\n      mload(0x40)\n      tag_39\n      swap2\n      swap1\n      tag_21\n      jump\t// in\n    tag_39:\n      mload(0x40)\n      dup1\n      swap2\n      sub\n      swap1\n      return\n        /* \"lessons/practiceMath.sol\":653:769  function Modulo () public pure returns(uint){... */\n    tag_11:\n      tag_40\n      tag_41\n      jump\t// in\n    tag_40:\n      mload(0x40)\n      tag_42\n      swap2\n      swap1\n      tag_21\n      jump\t// in\n    tag_42:\n      mload(0x40)\n      dup1\n      swap2\n      sub\n      swap1\n      return\n        /* \"lessons/practiceMath.sol\":1386:1483  function half() public pure returns (uint){... */\n    tag_12:\n      tag_43\n      tag_44\n      jump\t// in\n    tag_43:\n      mload(0x40)\n      tag_45\n      swap2\n      swap1\n      tag_21\n      jump\t// in\n    tag_45:\n      mload(0x40)\n      dup1\n      swap2\n      sub\n      swap1\n      return\n        /* \"lessons/practiceMath.sol\":931:1048  function isGreater() public pure returns(bool){... */\n    tag_15:\n        /* \"lessons/practiceMath.sol\":972:976  bool */\n      0x00\n        /* \"lessons/practiceMath.sol\":988:994  uint a */\n      0x00\n        /* \"lessons/practiceMath.sol\":997:998  5 */\n      0x05\n        /* \"lessons/practiceMath.sol\":988:998  uint a = 5 */\n      swap1\n      pop\n        /* \"lessons/practiceMath.sol\":1009:1015  uint b */\n      0x00\n        /* \"lessons/practiceMath.sol\":1018:1019  1 */\n      0x01\n        /* \"lessons/practiceMath.sol\":1009:1019  uint b = 1 */\n      swap1\n      pop\n        /* \"lessons/practiceMath.sol\":1039:1040  b */\n      dup1\n        /* \"lessons/practiceMath.sol\":1037:1038  a */\n      dup3\n        /* \"lessons/practiceMath.sol\":1037:1040  a>b */\n      gt\n        /* \"lessons/practiceMath.sol\":1030:1040  return a>b */\n      swap3\n      pop\n      pop\n      pop\n        /* \"lessons/practiceMath.sol\":931:1048  function isGreater() public pure returns(bool){... */\n      swap1\n      jump\t// out\n        /* \"lessons/practiceMath.sol\":371:488  function Multiply() public pure returns (uint){... */\n    tag_19:\n        /* \"lessons/practiceMath.sol\":412:416  uint */\n      0x00\n        /* \"lessons/practiceMath.sol\":428:434  uint a */\n      0x00\n        /* \"lessons/practiceMath.sol\":437:438  3 */\n      0x03\n        /* \"lessons/practiceMath.sol\":428:438  uint a = 3 */\n      swap1\n      pop\n        /* \"lessons/practiceMath.sol\":449:455  uint b */\n      0x00\n        /* \"lessons/practiceMath.sol\":458:459  6 */\n      0x06\n        /* \"lessons/practiceMath.sol\":449:459  uint b = 6 */\n      swap1\n      pop\n        /* \"lessons/practiceMath.sol\":479:480  b */\n      dup1\n        /* \"lessons/practiceMath.sol\":477:478  a */\n      dup3\n        /* \"lessons/practiceMath.sol\":477:480  a*b */\n      tag_48\n      swap2\n      swap1\n      tag_49\n      jump\t// in\n    tag_48:\n        /* \"lessons/practiceMath.sol\":470:480  return a*b */\n      swap3\n      pop\n      pop\n      pop\n        /* \"lessons/practiceMath.sol\":371:488  function Multiply() public pure returns (uint){... */\n      swap1\n      jump\t// out\n        /* \"lessons/practiceMath.sol\":793:895  function power() public pure returns(uint){... */\n    tag_23:\n        /* \"lessons/practiceMath.sol\":830:834  uint */\n      0x00\n        /* \"lessons/practiceMath.sol\":842:848  uint a */\n      0x00\n        /* \"lessons/practiceMath.sol\":851:852  2 */\n      0x02\n        /* \"lessons/practiceMath.sol\":842:852  uint a = 2 */\n      swap1\n      pop\n        /* \"lessons/practiceMath.sol\":859:865  uint b */\n      0x00\n        /* \"lessons/practiceMath.sol\":868:869  3 */\n      0x03\n        /* \"lessons/practiceMath.sol\":859:869  uint b = 3 */\n      swap1\n      pop\n        /* \"lessons/practiceMath.sol\":886:887  b */\n      dup1\n        /* \"lessons/practiceMath.sol\":883:884  a */\n      dup3\n        /* \"lessons/practiceMath.sol\":883:887  a**b */\n      tag_51\n      swap2\n      swap1\n      tag_52\n      jump\t// in\n    tag_51:\n        /* \"lessons/practiceMath.sol\":876:887  return a**b */\n      swap3\n      pop\n      pop\n      pop\n        /* \"lessons/practiceMath.sol\":793:895  function power() public pure returns(uint){... */\n      swap1\n      jump\t// out\n        /* \"lessons/practiceMath.sol\":86:196  function add() public pure returns (uint){... */\n    tag_26:\n        /* \"lessons/practiceMath.sol\":122:126  uint */\n      0x00\n        /* \"lessons/practiceMath.sol\":138:144  uint a */\n      0x00\n        /* \"lessons/practiceMath.sol\":146:147  1 */\n      0x01\n        /* \"lessons/practiceMath.sol\":138:147  uint a =1 */\n      swap1\n      pop\n        /* \"lessons/practiceMath.sol\":158:164  uint b */\n      0x00\n        /* \"lessons/practiceMath.sol\":166:167  2 */\n      0x02\n        /* \"lessons/practiceMath.sol\":158:167  uint b =2 */\n      swap1\n      pop\n        /* \"lessons/practiceMath.sol\":187:188  b */\n      dup1\n        /* \"lessons/practiceMath.sol\":185:186  a */\n      dup3\n        /* \"lessons/practiceMath.sol\":185:188  a+b */\n      tag_54\n      swap2\n      swap1\n      tag_55\n      jump\t// in\n    tag_54:\n        /* \"lessons/practiceMath.sol\":178:188  return a+b */\n      swap3\n      pop\n      pop\n      pop\n        /* \"lessons/practiceMath.sol\":86:196  function add() public pure returns (uint){... */\n      swap1\n      jump\t// out\n        /* \"lessons/practiceMath.sol\":513:628  function Divide()public pure returns (uint){... */\n    tag_29:\n        /* \"lessons/practiceMath.sol\":551:555  uint */\n      0x00\n        /* \"lessons/practiceMath.sol\":567:573  uint a */\n      0x00\n        /* \"lessons/practiceMath.sol\":576:578  50 */\n      0x32\n        /* \"lessons/practiceMath.sol\":567:578  uint a = 50 */\n      swap1\n      pop\n        /* \"lessons/practiceMath.sol\":589:595  uint b */\n      0x00\n        /* \"lessons/practiceMath.sol\":598:599  2 */\n      0x02\n        /* \"lessons/practiceMath.sol\":589:599  uint b = 2 */\n      swap1\n      pop\n        /* \"lessons/practiceMath.sol\":619:620  b */\n      dup1\n        /* \"lessons/practiceMath.sol\":617:618  a */\n      dup3\n        /* \"lessons/practiceMath.sol\":617:620  a/b */\n      tag_57\n      swap2\n      swap1\n      tag_58\n      jump\t// in\n    tag_57:\n        /* \"lessons/practiceMath.sol\":610:620  return a/b */\n      swap3\n      pop\n      pop\n      pop\n        /* \"lessons/practiceMath.sol\":513:628  function Divide()public pure returns (uint){... */\n      swap1\n      jump\t// out\n        /* \"lessons/practiceMath.sol\":1253:1351  function double() public pure returns ( uint){... */\n    tag_32:\n        /* \"lessons/practiceMath.sol\":1293:1297  uint */\n      0x00\n        /* \"lessons/practiceMath.sol\":1311:1317  uint a */\n      0x00\n        /* \"lessons/practiceMath.sol\":1320:1321  9 */\n      0x09\n        /* \"lessons/practiceMath.sol\":1311:1321  uint a = 9 */\n      swap1\n      pop\n        /* \"lessons/practiceMath.sol\":1342:1343  2 */\n      0x02\n        /* \"lessons/practiceMath.sol\":1339:1340  a */\n      dup2\n        /* \"lessons/practiceMath.sol\":1339:1343  a *2 */\n      tag_60\n      swap2\n      swap1\n      tag_49\n      jump\t// in\n    tag_60:\n        /* \"lessons/practiceMath.sol\":1332:1343  return a *2 */\n      swap2\n      pop\n      pop\n        /* \"lessons/practiceMath.sol\":1253:1351  function double() public pure returns ( uint){... */\n      swap1\n      jump\t// out\n        /* \"lessons/practiceMath.sol\":1084:1217  function isEqual() public pure returns ( bool){... */\n    tag_35:\n        /* \"lessons/practiceMath.sol\":1125:1129  bool */\n      0x00\n        /* \"lessons/practiceMath.sol\":1147:1153  uint a */\n      0x00\n        /* \"lessons/practiceMath.sol\":1156:1157  3 */\n      0x03\n        /* \"lessons/practiceMath.sol\":1147:1157  uint a = 3 */\n      swap1\n      pop\n        /* \"lessons/practiceMath.sol\":1168:1174  uint b */\n      0x00\n        /* \"lessons/practiceMath.sol\":1177:1178  3 */\n      0x03\n        /* \"lessons/practiceMath.sol\":1168:1178  uint b = 3 */\n      swap1\n      pop\n        /* \"lessons/practiceMath.sol\":1199:1200  b */\n      dup1\n        /* \"lessons/practiceMath.sol\":1196:1197  a */\n      dup3\n        /* \"lessons/practiceMath.sol\":1196:1200  a==b */\n      eq\n        /* \"lessons/practiceMath.sol\":1189:1200  return a==b */\n      swap3\n      pop\n      pop\n      pop\n        /* \"lessons/practiceMath.sol\":1084:1217  function isEqual() public pure returns ( bool){... */\n      swap1\n      jump\t// out\n        /* \"lessons/practiceMath.sol\":226:344  function Substract() public pure returns (uint){... */\n    tag_38:\n        /* \"lessons/practiceMath.sol\":268:272  uint */\n      0x00\n        /* \"lessons/practiceMath.sol\":286:292  uint a */\n      0x00\n        /* \"lessons/practiceMath.sol\":295:296  5 */\n      0x05\n        /* \"lessons/practiceMath.sol\":286:296  uint a = 5 */\n      swap1\n      pop\n        /* \"lessons/practiceMath.sol\":303:309  uint b */\n      0x00\n        /* \"lessons/practiceMath.sol\":311:313  10 */\n      0x0a\n        /* \"lessons/practiceMath.sol\":303:313  uint b =10 */\n      swap1\n      pop\n        /* \"lessons/practiceMath.sol\":329:330  b */\n      dup1\n        /* \"lessons/practiceMath.sol\":327:328  a */\n      dup3\n        /* \"lessons/practiceMath.sol\":327:330  a-b */\n      tag_63\n      swap2\n      swap1\n      tag_64\n      jump\t// in\n    tag_63:\n        /* \"lessons/practiceMath.sol\":320:330  return a-b */\n      swap3\n      pop\n      pop\n      pop\n        /* \"lessons/practiceMath.sol\":226:344  function Substract() public pure returns (uint){... */\n      swap1\n      jump\t// out\n        /* \"lessons/practiceMath.sol\":653:769  function Modulo () public pure returns(uint){... */\n    tag_41:\n        /* \"lessons/practiceMath.sol\":692:696  uint */\n      0x00\n        /* \"lessons/practiceMath.sol\":708:714  uint a */\n      0x00\n        /* \"lessons/practiceMath.sol\":717:719  10 */\n      0x0a\n        /* \"lessons/practiceMath.sol\":708:719  uint a = 10 */\n      swap1\n      pop\n        /* \"lessons/practiceMath.sol\":730:736  uint b */\n      0x00\n        /* \"lessons/practiceMath.sol\":739:740  3 */\n      0x03\n        /* \"lessons/practiceMath.sol\":730:740  uint b = 3 */\n      swap1\n      pop\n        /* \"lessons/practiceMath.sol\":760:761  b */\n      dup1\n        /* \"lessons/practiceMath.sol\":758:759  a */\n      dup3\n        /* \"lessons/practiceMath.sol\":758:761  a%b */\n      tag_66\n      swap2\n      swap1\n      tag_67\n      jump\t// in\n    tag_66:\n        /* \"lessons/practiceMath.sol\":751:761  return a%b */\n      swap3\n      pop\n      pop\n      pop\n        /* \"lessons/practiceMath.sol\":653:769  function Modulo () public pure returns(uint){... */\n      swap1\n      jump\t// out\n        /* \"lessons/practiceMath.sol\":1386:1483  function half() public pure returns (uint){... */\n    tag_44:\n        /* \"lessons/practiceMath.sol\":1423:1427  uint */\n      0x00\n        /* \"lessons/practiceMath.sol\":1441:1447  uint a */\n      0x00\n        /* \"lessons/practiceMath.sol\":1450:1452  10 */\n      0x0a\n        /* \"lessons/practiceMath.sol\":1441:1452  uint a = 10 */\n      swap1\n      pop\n        /* \"lessons/practiceMath.sol\":1472:1473  2 */\n      0x02\n        /* \"lessons/practiceMath.sol\":1470:1471  a */\n      dup2\n        /* \"lessons/practiceMath.sol\":1470:1473  a/2 */\n      tag_69\n      swap2\n      swap1\n      tag_58\n      jump\t// in\n    tag_69:\n        /* \"lessons/practiceMath.sol\":1463:1473  return a/2 */\n      swap2\n      pop\n      pop\n        /* \"lessons/practiceMath.sol\":1386:1483  function half() public pure returns (uint){... */\n      swap1\n      jump\t// out\n        /* \"#utility.yul\":7:97   */\n    tag_70:\n        /* \"#utility.yul\":41:48   */\n      0x00\n        /* \"#utility.yul\":84:89   */\n      dup2\n        /* \"#utility.yul\":77:90   */\n      iszero\n        /* \"#utility.yul\":70:91   */\n      iszero\n        /* \"#utility.yul\":59:91   */\n      swap1\n      pop\n        /* \"#utility.yul\":7:97   */\n      swap2\n      swap1\n      pop\n      jump\t// out\n        /* \"#utility.yul\":103:212   */\n    tag_71:\n        /* \"#utility.yul\":184:205   */\n      tag_82\n        /* \"#utility.yul\":199:204   */\n      dup2\n        /* \"#utility.yul\":184:205   */\n      tag_70\n      jump\t// in\n    tag_82:\n        /* \"#utility.yul\":179:182   */\n      dup3\n        /* \"#utility.yul\":172:206   */\n      mstore\n        /* \"#utility.yul\":103:212   */\n      pop\n      pop\n      jump\t// out\n        /* \"#utility.yul\":218:428   */\n    tag_17:\n        /* \"#utility.yul\":305:309   */\n      0x00\n        /* \"#utility.yul\":343:345   */\n      0x20\n        /* \"#utility.yul\":332:341   */\n      dup3\n        /* \"#utility.yul\":328:346   */\n      add\n        /* \"#utility.yul\":320:346   */\n      swap1\n      pop\n        /* \"#utility.yul\":356:421   */\n      tag_84\n        /* \"#utility.yul\":418:419   */\n      0x00\n        /* \"#utility.yul\":407:416   */\n      dup4\n        /* \"#utility.yul\":403:420   */\n      add\n        /* \"#utility.yul\":394:400   */\n      dup5\n        /* \"#utility.yul\":356:421   */\n      tag_71\n      jump\t// in\n    tag_84:\n        /* \"#utility.yul\":218:428   */\n      swap3\n      swap2\n      pop\n      pop\n      jump\t// out\n        /* \"#utility.yul\":434:511   */\n    tag_72:\n        /* \"#utility.yul\":471:478   */\n      0x00\n        /* \"#utility.yul\":500:505   */\n      dup2\n        /* \"#utility.yul\":489:505   */\n      swap1\n      pop\n        /* \"#utility.yul\":434:511   */\n      swap2\n      swap1\n      pop\n      jump\t// out\n        /* \"#utility.yul\":517:635   */\n    tag_73:\n        /* \"#utility.yul\":604:628   */\n      tag_87\n        /* \"#utility.yul\":622:627   */\n      dup2\n        /* \"#utility.yul\":604:628   */\n      tag_72\n      jump\t// in\n    tag_87:\n        /* \"#utility.yul\":599:602   */\n      dup3\n        /* \"#utility.yul\":592:629   */\n      mstore\n        /* \"#utility.yul\":517:635   */\n      pop\n      pop\n      jump\t// out\n        /* \"#utility.yul\":641:863   */\n    tag_21:\n        /* \"#utility.yul\":734:738   */\n      0x00\n        /* \"#utility.yul\":772:774   */\n      0x20\n        /* \"#utility.yul\":761:770   */\n      dup3\n        /* \"#utility.yul\":757:775   */\n      add\n        /* \"#utility.yul\":749:775   */\n      swap1\n      pop\n        /* \"#utility.yul\":785:856   */\n      tag_89\n        /* \"#utility.yul\":853:854   */\n      0x00\n        /* \"#utility.yul\":842:851   */\n      dup4\n        /* \"#utility.yul\":838:855   */\n      add\n        /* \"#utility.yul\":829:835   */\n      dup5\n        /* \"#utility.yul\":785:856   */\n      tag_73\n      jump\t// in\n    tag_89:\n        /* \"#utility.yul\":641:863   */\n      swap3\n      swap2\n      pop\n      pop\n      jump\t// out\n        /* \"#utility.yul\":869:1049   */\n    tag_74:\n        /* \"#utility.yul\":917:994   */\n      0x4e487b7100000000000000000000000000000000000000000000000000000000\n        /* \"#utility.yul\":914:915   */\n      0x00\n        /* \"#utility.yul\":907:995   */\n      mstore\n        /* \"#utility.yul\":1014:1018   */\n      0x11\n        /* \"#utility.yul\":1011:1012   */\n      0x04\n        /* \"#utility.yul\":1004:1019   */\n      mstore\n        /* \"#utility.yul\":1038:1042   */\n      0x24\n        /* \"#utility.yul\":1035:1036   */\n      0x00\n        /* \"#utility.yul\":1028:1043   */\n      revert\n        /* \"#utility.yul\":1055:1465   */\n    tag_49:\n        /* \"#utility.yul\":1095:1102   */\n      0x00\n        /* \"#utility.yul\":1118:1138   */\n      tag_92\n        /* \"#utility.yul\":1136:1137   */\n      dup3\n        /* \"#utility.yul\":1118:1138   */\n      tag_72\n      jump\t// in\n    tag_92:\n        /* \"#utility.yul\":1113:1138   */\n      swap2\n      pop\n        /* \"#utility.yul\":1152:1172   */\n      tag_93\n        /* \"#utility.yul\":1170:1171   */\n      dup4\n        /* \"#utility.yul\":1152:1172   */\n      tag_72\n      jump\t// in\n    tag_93:\n        /* \"#utility.yul\":1147:1172   */\n      swap3\n      pop\n        /* \"#utility.yul\":1207:1208   */\n      dup3\n        /* \"#utility.yul\":1204:1205   */\n      dup3\n        /* \"#utility.yul\":1200:1209   */\n      mul\n        /* \"#utility.yul\":1229:1259   */\n      tag_94\n        /* \"#utility.yul\":1247:1258   */\n      dup2\n        /* \"#utility.yul\":1229:1259   */\n      tag_72\n      jump\t// in\n    tag_94:\n        /* \"#utility.yul\":1218:1259   */\n      swap2\n      pop\n        /* \"#utility.yul\":1408:1409   */\n      dup3\n        /* \"#utility.yul\":1399:1406   */\n      dup3\n        /* \"#utility.yul\":1395:1410   */\n      div\n        /* \"#utility.yul\":1392:1393   */\n      dup5\n        /* \"#utility.yul\":1389:1411   */\n      eq\n        /* \"#utility.yul\":1369:1370   */\n      dup4\n        /* \"#utility.yul\":1362:1371   */\n      iszero\n        /* \"#utility.yul\":1342:1425   */\n      or\n        /* \"#utility.yul\":1319:1458   */\n      tag_95\n      jumpi\n        /* \"#utility.yul\":1438:1456   */\n      tag_96\n      tag_74\n      jump\t// in\n    tag_96:\n        /* \"#utility.yul\":1319:1458   */\n    tag_95:\n        /* \"#utility.yul\":1103:1465   */\n      pop\n        /* \"#utility.yul\":1055:1465   */\n      swap3\n      swap2\n      pop\n      pop\n      jump\t// out\n        /* \"#utility.yul\":1471:1573   */\n    tag_75:\n        /* \"#utility.yul\":1513:1521   */\n      0x00\n        /* \"#utility.yul\":1560:1565   */\n      dup2\n        /* \"#utility.yul\":1557:1558   */\n      0x01\n        /* \"#utility.yul\":1553:1566   */\n      shr\n        /* \"#utility.yul\":1532:1566   */\n      swap1\n      pop\n        /* \"#utility.yul\":1471:1573   */\n      swap2\n      swap1\n      pop\n      jump\t// out\n        /* \"#utility.yul\":1579:2427   */\n    tag_76:\n        /* \"#utility.yul\":1640:1645   */\n      0x00\n        /* \"#utility.yul\":1647:1651   */\n      0x00\n        /* \"#utility.yul\":1671:1677   */\n      dup3\n        /* \"#utility.yul\":1662:1677   */\n      swap2\n      pop\n        /* \"#utility.yul\":1695:1700   */\n      dup4\n        /* \"#utility.yul\":1686:1700   */\n      swap1\n      pop\n        /* \"#utility.yul\":1709:2421   */\n    tag_99:\n        /* \"#utility.yul\":1730:1731   */\n      0x01\n        /* \"#utility.yul\":1720:1728   */\n      dup6\n        /* \"#utility.yul\":1717:1732   */\n      gt\n        /* \"#utility.yul\":1709:2421   */\n      iszero\n      tag_101\n      jumpi\n        /* \"#utility.yul\":1825:1829   */\n      dup1\n        /* \"#utility.yul\":1820:1823   */\n      dup7\n        /* \"#utility.yul\":1816:1830   */\n      div\n        /* \"#utility.yul\":1810:1814   */\n      dup2\n        /* \"#utility.yul\":1807:1831   */\n      gt\n        /* \"#utility.yul\":1804:1854   */\n      iszero\n      tag_102\n      jumpi\n        /* \"#utility.yul\":1834:1852   */\n      tag_103\n      tag_74\n      jump\t// in\n    tag_103:\n        /* \"#utility.yul\":1804:1854   */\n    tag_102:\n        /* \"#utility.yul\":1884:1885   */\n      0x01\n        /* \"#utility.yul\":1874:1882   */\n      dup6\n        /* \"#utility.yul\":1870:1886   */\n      and\n        /* \"#utility.yul\":1867:2318   */\n      iszero\n      tag_104\n      jumpi\n        /* \"#utility.yul\":2299:2303   */\n      dup1\n        /* \"#utility.yul\":2292:2297   */\n      dup3\n        /* \"#utility.yul\":2288:2304   */\n      mul\n        /* \"#utility.yul\":2279:2304   */\n      swap2\n      pop\n        /* \"#utility.yul\":1867:2318   */\n    tag_104:\n        /* \"#utility.yul\":2349:2353   */\n      dup1\n        /* \"#utility.yul\":2343:2347   */\n      dup2\n        /* \"#utility.yul\":2339:2354   */\n      mul\n        /* \"#utility.yul\":2331:2354   */\n      swap1\n      pop\n        /* \"#utility.yul\":2379:2411   */\n      tag_105\n        /* \"#utility.yul\":2402:2410   */\n      dup6\n        /* \"#utility.yul\":2379:2411   */\n      tag_75\n      jump\t// in\n    tag_105:\n        /* \"#utility.yul\":2367:2411   */\n      swap5\n      pop\n        /* \"#utility.yul\":1709:2421   */\n      jump(tag_99)\n    tag_101:\n        /* \"#utility.yul\":1579:2427   */\n      swap5\n      pop\n      swap5\n      swap3\n      pop\n      pop\n      pop\n      jump\t// out\n        /* \"#utility.yul\":2433:3506   */\n    tag_77:\n        /* \"#utility.yul\":2487:2492   */\n      0x00\n        /* \"#utility.yul\":2678:2686   */\n      dup3\n        /* \"#utility.yul\":2668:2708   */\n      tag_107\n      jumpi\n        /* \"#utility.yul\":2699:2700   */\n      0x01\n        /* \"#utility.yul\":2690:2700   */\n      swap1\n      pop\n        /* \"#utility.yul\":2701:2706   */\n      jump(tag_106)\n        /* \"#utility.yul\":2668:2708   */\n    tag_107:\n        /* \"#utility.yul\":2727:2731   */\n      dup2\n        /* \"#utility.yul\":2717:2753   */\n      tag_108\n      jumpi\n        /* \"#utility.yul\":2744:2745   */\n      0x00\n        /* \"#utility.yul\":2735:2745   */\n      swap1\n      pop\n        /* \"#utility.yul\":2746:2751   */\n      jump(tag_106)\n        /* \"#utility.yul\":2717:2753   */\n    tag_108:\n        /* \"#utility.yul\":2813:2817   */\n      dup2\n        /* \"#utility.yul\":2861:2862   */\n      0x01\n        /* \"#utility.yul\":2856:2883   */\n      dup2\n      eq\n      tag_110\n      jumpi\n        /* \"#utility.yul\":2897:2898   */\n      0x02\n        /* \"#utility.yul\":2892:3083   */\n      dup2\n      eq\n      tag_111\n      jumpi\n        /* \"#utility.yul\":2806:3083   */\n      jump(tag_109)\n        /* \"#utility.yul\":2856:2883   */\n    tag_110:\n        /* \"#utility.yul\":2874:2875   */\n      0x01\n        /* \"#utility.yul\":2865:2875   */\n      swap2\n      pop\n        /* \"#utility.yul\":2876:2881   */\n      pop\n      jump(tag_106)\n        /* \"#utility.yul\":2892:3083   */\n    tag_111:\n        /* \"#utility.yul\":2937:2940   */\n      0xff\n        /* \"#utility.yul\":2927:2935   */\n      dup5\n        /* \"#utility.yul\":2924:2941   */\n      gt\n        /* \"#utility.yul\":2921:2964   */\n      iszero\n      tag_112\n      jumpi\n        /* \"#utility.yul\":2944:2962   */\n      tag_113\n      tag_74\n      jump\t// in\n    tag_113:\n        /* \"#utility.yul\":2921:2964   */\n    tag_112:\n        /* \"#utility.yul\":2993:3001   */\n      dup4\n        /* \"#utility.yul\":2990:2991   */\n      0x02\n        /* \"#utility.yul\":2986:3002   */\n      exp\n        /* \"#utility.yul\":2977:3002   */\n      swap2\n      pop\n        /* \"#utility.yul\":3028:3031   */\n      dup5\n        /* \"#utility.yul\":3021:3026   */\n      dup3\n        /* \"#utility.yul\":3018:3032   */\n      gt\n        /* \"#utility.yul\":3015:3055   */\n      iszero\n      tag_114\n      jumpi\n        /* \"#utility.yul\":3035:3053   */\n      tag_115\n      tag_74\n      jump\t// in\n    tag_115:\n        /* \"#utility.yul\":3015:3055   */\n    tag_114:\n        /* \"#utility.yul\":3068:3073   */\n      pop\n      jump(tag_106)\n        /* \"#utility.yul\":2806:3083   */\n    tag_109:\n      pop\n        /* \"#utility.yul\":3192:3194   */\n      0x20\n        /* \"#utility.yul\":3182:3190   */\n      dup4\n        /* \"#utility.yul\":3179:3195   */\n      lt\n        /* \"#utility.yul\":3173:3176   */\n      0x0133\n        /* \"#utility.yul\":3167:3171   */\n      dup4\n        /* \"#utility.yul\":3164:3177   */\n      lt\n        /* \"#utility.yul\":3160:3196   */\n      and\n        /* \"#utility.yul\":3142:3144   */\n      0x4e\n        /* \"#utility.yul\":3132:3140   */\n      dup5\n        /* \"#utility.yul\":3129:3145   */\n      lt\n        /* \"#utility.yul\":3124:3126   */\n      0x0b\n        /* \"#utility.yul\":3118:3122   */\n      dup5\n        /* \"#utility.yul\":3115:3127   */\n      lt\n        /* \"#utility.yul\":3111:3146   */\n      and\n        /* \"#utility.yul\":3095:3206   */\n      or\n        /* \"#utility.yul\":3092:3338   */\n      iszero\n      tag_116\n      jumpi\n        /* \"#utility.yul\":3248:3256   */\n      dup3\n        /* \"#utility.yul\":3242:3246   */\n      dup3\n        /* \"#utility.yul\":3238:3257   */\n      exp\n        /* \"#utility.yul\":3229:3257   */\n      swap1\n      pop\n        /* \"#utility.yul\":3283:3286   */\n      dup4\n        /* \"#utility.yul\":3276:3281   */\n      dup2\n        /* \"#utility.yul\":3273:3287   */\n      gt\n        /* \"#utility.yul\":3270:3310   */\n      iszero\n      tag_117\n      jumpi\n        /* \"#utility.yul\":3290:3308   */\n      tag_118\n      tag_74\n      jump\t// in\n    tag_118:\n        /* \"#utility.yul\":3270:3310   */\n    tag_117:\n        /* \"#utility.yul\":3323:3328   */\n      jump(tag_106)\n        /* \"#utility.yul\":3092:3338   */\n    tag_116:\n        /* \"#utility.yul\":3363:3405   */\n      tag_119\n        /* \"#utility.yul\":3401:3404   */\n      dup5\n        /* \"#utility.yul\":3391:3399   */\n      dup5\n        /* \"#utility.yul\":3385:3389   */\n      dup5\n        /* \"#utility.yul\":3382:3383   */\n      0x01\n        /* \"#utility.yul\":3363:3405   */\n      tag_76\n      jump\t// in\n    tag_119:\n        /* \"#utility.yul\":3348:3405   */\n      swap3\n      pop\n      swap1\n      pop\n        /* \"#utility.yul\":3437:3441   */\n      dup2\n        /* \"#utility.yul\":3432:3435   */\n      dup5\n        /* \"#utility.yul\":3428:3442   */\n      div\n        /* \"#utility.yul\":3421:3426   */\n      dup2\n        /* \"#utility.yul\":3418:3443   */\n      gt\n        /* \"#utility.yul\":3415:3466   */\n      iszero\n      tag_120\n      jumpi\n        /* \"#utility.yul\":3446:3464   */\n      tag_121\n      tag_74\n      jump\t// in\n    tag_121:\n        /* \"#utility.yul\":3415:3466   */\n    tag_120:\n        /* \"#utility.yul\":3495:3499   */\n      dup2\n        /* \"#utility.yul\":3488:3493   */\n      dup2\n        /* \"#utility.yul\":3484:3500   */\n      mul\n        /* \"#utility.yul\":3475:3500   */\n      swap1\n      pop\n        /* \"#utility.yul\":2433:3506   */\n    tag_106:\n      swap4\n      swap3\n      pop\n      pop\n      pop\n      jump\t// out\n        /* \"#utility.yul\":3512:3797   */\n    tag_52:\n        /* \"#utility.yul\":3572:3577   */\n      0x00\n        /* \"#utility.yul\":3596:3619   */\n      tag_123\n        /* \"#utility.yul\":3614:3618   */\n      dup3\n        /* \"#utility.yul\":3596:3619   */\n      tag_72\n      jump\t// in\n    tag_123:\n        /* \"#utility.yul\":3588:3619   */\n      swap2\n      pop\n        /* \"#utility.yul\":3640:3667   */\n      tag_124\n        /* \"#utility.yul\":3658:3666   */\n      dup4\n        /* \"#utility.yul\":3640:3667   */\n      tag_72\n      jump\t// in\n    tag_124:\n        /* \"#utility.yul\":3628:3667   */\n      swap3\n      pop\n        /* \"#utility.yul\":3686:3790   */\n      tag_125\n        /* \"#utility.yul\":3723:3789   */\n      0xffffffffffffffffffffffffffffffffffffffffffffffffffffffffffffffff\n        /* \"#utility.yul\":3713:3721   */\n      dup5\n        /* \"#utility.yul\":3707:3711   */\n      dup5\n        /* \"#utility.yul\":3686:3790   */\n      tag_77\n      jump\t// in\n    tag_125:\n        /* \"#utility.yul\":3677:3790   */\n      swap1\n      pop\n        /* \"#utility.yul\":3512:3797   */\n      swap3\n      swap2\n      pop\n      pop\n      jump\t// out\n        /* \"#utility.yul\":3803:3994   */\n    tag_55:\n        /* \"#utility.yul\":3843:3846   */\n      0x00\n        /* \"#utility.yul\":3862:3882   */\n      tag_127\n        /* \"#utility.yul\":3880:3881   */\n      dup3\n        /* \"#utility.yul\":3862:3882   */\n      tag_72\n      jump\t// in\n    tag_127:\n        /* \"#utility.yul\":3857:3882   */\n      swap2\n      pop\n        /* \"#utility.yul\":3896:3916   */\n      tag_128\n        /* \"#utility.yul\":3914:3915   */\n      dup4\n        /* \"#utility.yul\":3896:3916   */\n      tag_72\n      jump\t// in\n    tag_128:\n        /* \"#utility.yul\":3891:3916   */\n      swap3\n      pop\n        /* \"#utility.yul\":3939:3940   */\n      dup3\n        /* \"#utility.yul\":3936:3937   */\n      dup3\n        /* \"#utility.yul\":3932:3941   */\n      add\n        /* \"#utility.yul\":3925:3941   */\n      swap1\n      pop\n        /* \"#utility.yul\":3960:3963   */\n      dup1\n        /* \"#utility.yul\":3957:3958   */\n      dup3\n        /* \"#utility.yul\":3954:3964   */\n      gt\n        /* \"#utility.yul\":3951:3987   */\n      iszero\n      tag_129\n      jumpi\n        /* \"#utility.yul\":3967:3985   */\n      tag_130\n      tag_74\n      jump\t// in\n    tag_130:\n        /* \"#utility.yul\":3951:3987   */\n    tag_129:\n        /* \"#utility.yul\":3803:3994   */\n      swap3\n      swap2\n      pop\n      pop\n      jump\t// out\n        /* \"#utility.yul\":4000:4180   */\n    tag_78:\n        /* \"#utility.yul\":4048:4125   */\n      0x4e487b7100000000000000000000000000000000000000000000000000000000\n        /* \"#utility.yul\":4045:4046   */\n      0x00\n        /* \"#utility.yul\":4038:4126   */\n      mstore\n        /* \"#utility.yul\":4145:4149   */\n      0x12\n        /* \"#utility.yul\":4142:4143   */\n      0x04\n        /* \"#utility.yul\":4135:4150   */\n      mstore\n        /* \"#utility.yul\":4169:4173   */\n      0x24\n        /* \"#utility.yul\":4166:4167   */\n      0x00\n        /* \"#utility.yul\":4159:4174   */\n      revert\n        /* \"#utility.yul\":4186:4371   */\n    tag_58:\n        /* \"#utility.yul\":4226:4227   */\n      0x00\n        /* \"#utility.yul\":4243:4263   */\n      tag_133\n        /* \"#utility.yul\":4261:4262   */\n      dup3\n        /* \"#utility.yul\":4243:4263   */\n      tag_72\n      jump\t// in\n    tag_133:\n        /* \"#utility.yul\":4238:4263   */\n      swap2\n      pop\n        /* \"#utility.yul\":4277:4297   */\n      tag_134\n        /* \"#utility.yul\":4295:4296   */\n      dup4\n        /* \"#utility.yul\":4277:4297   */\n      tag_72\n      jump\t// in\n    tag_134:\n        /* \"#utility.yul\":4272:4297   */\n      swap3\n      pop\n        /* \"#utility.yul\":4316:4317   */\n      dup3\n        /* \"#utility.yul\":4306:4341   */\n      tag_135\n      jumpi\n        /* \"#utility.yul\":4321:4339   */\n      tag_136\n      tag_78\n      jump\t// in\n    tag_136:\n        /* \"#utility.yul\":4306:4341   */\n    tag_135:\n        /* \"#utility.yul\":4363:4364   */\n      dup3\n        /* \"#utility.yul\":4360:4361   */\n      dup3\n        /* \"#utility.yul\":4356:4365   */\n      div\n        /* \"#utility.yul\":4351:4365   */\n      swap1\n      pop\n        /* \"#utility.yul\":4186:4371   */\n      swap3\n      swap2\n      pop\n      pop\n      jump\t// out\n        /* \"#utility.yul\":4377:4571   */\n    tag_64:\n        /* \"#utility.yul\":4417:4421   */\n      0x00\n        /* \"#utility.yul\":4437:4457   */\n      tag_138\n        /* \"#utility.yul\":4455:4456   */\n      dup3\n        /* \"#utility.yul\":4437:4457   */\n      tag_72\n      jump\t// in\n    tag_138:\n        /* \"#utility.yul\":4432:4457   */\n      swap2\n      pop\n        /* \"#utility.yul\":4471:4491   */\n      tag_139\n        /* \"#utility.yul\":4489:4490   */\n      dup4\n        /* \"#utility.yul\":4471:4491   */\n      tag_72\n      jump\t// in\n    tag_139:\n        /* \"#utility.yul\":4466:4491   */\n      swap3\n      pop\n        /* \"#utility.yul\":4515:4516   */\n      dup3\n        /* \"#utility.yul\":4512:4513   */\n      dup3\n        /* \"#utility.yul\":4508:4517   */\n      sub\n        /* \"#utility.yul\":4500:4517   */\n      swap1\n      pop\n        /* \"#utility.yul\":4539:4540   */\n      dup2\n        /* \"#utility.yul\":4533:4537   */\n      dup2\n        /* \"#utility.yul\":4530:4541   */\n      gt\n        /* \"#utility.yul\":4527:4564   */\n      iszero\n      tag_140\n      jumpi\n        /* \"#utility.yul\":4544:4562   */\n      tag_141\n      tag_74\n      jump\t// in\n    tag_141:\n        /* \"#utility.yul\":4527:4564   */\n    tag_140:\n        /* \"#utility.yul\":4377:4571   */\n      swap3\n      swap2\n      pop\n      pop\n      jump\t// out\n        /* \"#utility.yul\":4577:4753   */\n    tag_67:\n        /* \"#utility.yul\":4609:4610   */\n      0x00\n        /* \"#utility.yul\":4626:4646   */\n      tag_143\n        /* \"#utility.yul\":4644:4645   */\n      dup3\n        /* \"#utility.yul\":4626:4646   */\n      tag_72\n      jump\t// in\n    tag_143:\n        /* \"#utility.yul\":4621:4646   */\n      swap2\n      pop\n        /* \"#utility.yul\":4660:4680   */\n      tag_144\n        /* \"#utility.yul\":4678:4679   */\n      dup4\n        /* \"#utility.yul\":4660:4680   */\n      tag_72\n      jump\t// in\n    tag_144:\n        /* \"#utility.yul\":4655:4680   */\n      swap3\n      pop\n        /* \"#utility.yul\":4699:4700   */\n      dup3\n        /* \"#utility.yul\":4689:4724   */\n      tag_145\n      jumpi\n        /* \"#utility.yul\":4704:4722   */\n      tag_146\n      tag_78\n      jump\t// in\n    tag_146:\n        /* \"#utility.yul\":4689:4724   */\n    tag_145:\n        /* \"#utility.yul\":4745:4746   */\n      dup3\n        /* \"#utility.yul\":4742:4743   */\n      dup3\n        /* \"#utility.yul\":4738:4747   */\n      mod\n        /* \"#utility.yul\":4733:4747   */\n      swap1\n      pop\n        /* \"#utility.yul\":4577:4753   */\n      swap3\n      swap2\n      pop\n      pop\n      jump\t// out\n\n    auxdata: 0xa26469706673582212207b0e1d1efcd276ed85d6f27b4e1d8d389ea0ddc5e77238221d8fdbf8d7dacfb164736f6c634300081e0033\n}\n",
				"bytecode": {
					"linkReferences": {},
					"object": "6080604052348015600e575f5ffd5b506106508061001c5f395ff3fe608060405234801561000f575f5ffd5b506004361061009c575f3560e01c80638fdb7189116100645780638fdb718914610136578063acbe845214610154578063e04dd33c14610172578063efa3153914610190578063f6a6462c146101ae5761009c565b80631bdf0cdc146100a05780634799e6d8146100be5780634a4d59fa146100dc5780634f2be91f146100fa57806372b38ffc14610118575b5f5ffd5b6100a86101cc565b6040516100b591906102f6565b60405180910390f35b6100c66101e1565b6040516100d39190610327565b60405180910390f35b6100e46101ff565b6040516100f19190610327565b60405180910390f35b61010261021d565b60405161010f9190610327565b60405180910390f35b61012061023b565b60405161012d9190610327565b60405180910390f35b61013e610259565b60405161014b9190610327565b60405180910390f35b61015c610272565b60405161016991906102f6565b60405180910390f35b61017a610287565b6040516101879190610327565b60405180910390f35b6101986102a5565b6040516101a59190610327565b60405180910390f35b6101b66102c3565b6040516101c39190610327565b60405180910390f35b5f5f600590505f600190508082119250505090565b5f5f600390505f6006905080826101f8919061036d565b9250505090565b5f5f600290505f60039050808261021691906104dd565b9250505090565b5f5f600190505f6002905080826102349190610527565b9250505090565b5f5f603290505f6002905080826102529190610587565b9250505090565b5f5f6009905060028161026c919061036d565b91505090565b5f5f600390505f600390508082149250505090565b5f5f600590505f600a9050808261029e91906105b7565b9250505090565b5f5f600a90505f6003905080826102bc91906105ea565b9250505090565b5f5f600a90506002816102d69190610587565b91505090565b5f8115159050919050565b6102f0816102dc565b82525050565b5f6020820190506103095f8301846102e7565b92915050565b5f819050919050565b6103218161030f565b82525050565b5f60208201905061033a5f830184610318565b92915050565b7f4e487b71000000000000000000000000000000000000000000000000000000005f52601160045260245ffd5b5f6103778261030f565b91506103828361030f565b92508282026103908161030f565b915082820484148315176103a7576103a6610340565b5b5092915050565b5f8160011c9050919050565b5f5f8291508390505b6001851115610403578086048111156103df576103de610340565b5b60018516156103ee5780820291505b80810290506103fc856103ae565b94506103c3565b94509492505050565b5f8261041b57600190506104d6565b81610428575f90506104d6565b816001811461043e576002811461044857610477565b60019150506104d6565b60ff84111561045a57610459610340565b5b8360020a91508482111561047157610470610340565b5b506104d6565b5060208310610133831016604e8410600b84101617156104ac5782820a9050838111156104a7576104a6610340565b5b6104d6565b6104b984848460016103ba565b925090508184048111156104d0576104cf610340565b5b81810290505b9392505050565b5f6104e78261030f565b91506104f28361030f565b925061051f7fffffffffffffffffffffffffffffffffffffffffffffffffffffffffffffffff848461040c565b905092915050565b5f6105318261030f565b915061053c8361030f565b925082820190508082111561055457610553610340565b5b92915050565b7f4e487b71000000000000000000000000000000000000000000000000000000005f52601260045260245ffd5b5f6105918261030f565b915061059c8361030f565b9250826105ac576105ab61055a565b5b828204905092915050565b5f6105c18261030f565b91506105cc8361030f565b92508282039050818111156105e4576105e3610340565b5b92915050565b5f6105f48261030f565b91506105ff8361030f565b92508261060f5761060e61055a565b5b82820690509291505056fea26469706673582212207b0e1d1efcd276ed85d6f27b4e1d8d389ea0ddc5e77238221d8fdbf8d7dacfb164736f6c634300081e0033",
					"opcodes": "PUSH1 0x80 PUSH1 0x40 MSTORE CALLVALUE DUP1 ISZERO PUSH1 0xE JUMPI PUSH0 PUSH0 REVERT JUMPDEST POP PUSH2 0x650 DUP1 PUSH2 0x1C PUSH0 CODECOPY PUSH0 RETURN INVALID PUSH1 0x80 PUSH1 0x40 MSTORE CALLVALUE DUP1 ISZERO PUSH2 0xF JUMPI PUSH0 PUSH0 REVERT JUMPDEST POP PUSH1 0x4 CALLDATASIZE LT PUSH2 0x9C JUMPI PUSH0 CALLDATALOAD PUSH1 0xE0 SHR DUP1 PUSH4 0x8FDB7189 GT PUSH2 0x64 JUMPI DUP1 PUSH4 0x8FDB7189 EQ PUSH2 0x136 JUMPI DUP1 PUSH4 0xACBE8452 EQ PUSH2 0x154 JUMPI DUP1 PUSH4 0xE04DD33C EQ PUSH2 0x172 JUMPI DUP1 PUSH4 0xEFA31539 EQ PUSH2 0x190 JUMPI DUP1 PUSH4 0xF6A6462C EQ PUSH2 0x1AE JUMPI PUSH2 0x9C JUMP JUMPDEST DUP1 PUSH4 0x1BDF0CDC EQ PUSH2 0xA0 JUMPI DUP1 PUSH4 0x4799E6D8 EQ PUSH2 0xBE JUMPI DUP1 PUSH4 0x4A4D59FA EQ PUSH2 0xDC JUMPI DUP1 PUSH4 0x4F2BE91F EQ PUSH2 0xFA JUMPI DUP1 PUSH4 0x72B38FFC EQ PUSH2 0x118 JUMPI JUMPDEST PUSH0 PUSH0 REVERT JUMPDEST PUSH2 0xA8 PUSH2 0x1CC JUMP JUMPDEST PUSH1 0x40 MLOAD PUSH2 0xB5 SWAP2 SWAP1 PUSH2 0x2F6 JUMP JUMPDEST PUSH1 0x40 MLOAD DUP1 SWAP2 SUB SWAP1 RETURN JUMPDEST PUSH2 0xC6 PUSH2 0x1E1 JUMP JUMPDEST PUSH1 0x40 MLOAD PUSH2 0xD3 SWAP2 SWAP1 PUSH2 0x327 JUMP JUMPDEST PUSH1 0x40 MLOAD DUP1 SWAP2 SUB SWAP1 RETURN JUMPDEST PUSH2 0xE4 PUSH2 0x1FF JUMP JUMPDEST PUSH1 0x40 MLOAD PUSH2 0xF1 SWAP2 SWAP1 PUSH2 0x327 JUMP JUMPDEST PUSH1 0x40 MLOAD DUP1 SWAP2 SUB SWAP1 RETURN JUMPDEST PUSH2 0x102 PUSH2 0x21D JUMP JUMPDEST PUSH1 0x40 MLOAD PUSH2 0x10F SWAP2 SWAP1 PUSH2 0x327 JUMP JUMPDEST PUSH1 0x40 MLOAD DUP1 SWAP2 SUB SWAP1 RETURN JUMPDEST PUSH2 0x120 PUSH2 0x23B JUMP JUMPDEST PUSH1 0x40 MLOAD PUSH2 0x12D SWAP2 SWAP1 PUSH2 0x327 JUMP JUMPDEST PUSH1 0x40 MLOAD DUP1 SWAP2 SUB SWAP1 RETURN JUMPDEST PUSH2 0x13E PUSH2 0x259 JUMP JUMPDEST PUSH1 0x40 MLOAD PUSH2 0x14B SWAP2 SWAP1 PUSH2 0x327 JUMP JUMPDEST PUSH1 0x40 MLOAD DUP1 SWAP2 SUB SWAP1 RETURN JUMPDEST PUSH2 0x15C PUSH2 0x272 JUMP JUMPDEST PUSH1 0x40 MLOAD PUSH2 0x169 SWAP2 SWAP1 PUSH2 0x2F6 JUMP JUMPDEST PUSH1 0x40 MLOAD DUP1 SWAP2 SUB SWAP1 RETURN JUMPDEST PUSH2 0x17A PUSH2 0x287 JUMP JUMPDEST PUSH1 0x40 MLOAD PUSH2 0x187 SWAP2 SWAP1 PUSH2 0x327 JUMP JUMPDEST PUSH1 0x40 MLOAD DUP1 SWAP2 SUB SWAP1 RETURN JUMPDEST PUSH2 0x198 PUSH2 0x2A5 JUMP JUMPDEST PUSH1 0x40 MLOAD PUSH2 0x1A5 SWAP2 SWAP1 PUSH2 0x327 JUMP JUMPDEST PUSH1 0x40 MLOAD DUP1 SWAP2 SUB SWAP1 RETURN JUMPDEST PUSH2 0x1B6 PUSH2 0x2C3 JUMP JUMPDEST PUSH1 0x40 MLOAD PUSH2 0x1C3 SWAP2 SWAP1 PUSH2 0x327 JUMP JUMPDEST PUSH1 0x40 MLOAD DUP1 SWAP2 SUB SWAP1 RETURN JUMPDEST PUSH0 PUSH0 PUSH1 0x5 SWAP1 POP PUSH0 PUSH1 0x1 SWAP1 POP DUP1 DUP3 GT SWAP3 POP POP POP SWAP1 JUMP JUMPDEST PUSH0 PUSH0 PUSH1 0x3 SWAP1 POP PUSH0 PUSH1 0x6 SWAP1 POP DUP1 DUP3 PUSH2 0x1F8 SWAP2 SWAP1 PUSH2 0x36D JUMP JUMPDEST SWAP3 POP POP POP SWAP1 JUMP JUMPDEST PUSH0 PUSH0 PUSH1 0x2 SWAP1 POP PUSH0 PUSH1 0x3 SWAP1 POP DUP1 DUP3 PUSH2 0x216 SWAP2 SWAP1 PUSH2 0x4DD JUMP JUMPDEST SWAP3 POP POP POP SWAP1 JUMP JUMPDEST PUSH0 PUSH0 PUSH1 0x1 SWAP1 POP PUSH0 PUSH1 0x2 SWAP1 POP DUP1 DUP3 PUSH2 0x234 SWAP2 SWAP1 PUSH2 0x527 JUMP JUMPDEST SWAP3 POP POP POP SWAP1 JUMP JUMPDEST PUSH0 PUSH0 PUSH1 0x32 SWAP1 POP PUSH0 PUSH1 0x2 SWAP1 POP DUP1 DUP3 PUSH2 0x252 SWAP2 SWAP1 PUSH2 0x587 JUMP JUMPDEST SWAP3 POP POP POP SWAP1 JUMP JUMPDEST PUSH0 PUSH0 PUSH1 0x9 SWAP1 POP PUSH1 0x2 DUP2 PUSH2 0x26C SWAP2 SWAP1 PUSH2 0x36D JUMP JUMPDEST SWAP2 POP POP SWAP1 JUMP JUMPDEST PUSH0 PUSH0 PUSH1 0x3 SWAP1 POP PUSH0 PUSH1 0x3 SWAP1 POP DUP1 DUP3 EQ SWAP3 POP POP POP SWAP1 JUMP JUMPDEST PUSH0 PUSH0 PUSH1 0x5 SWAP1 POP PUSH0 PUSH1 0xA SWAP1 POP DUP1 DUP3 PUSH2 0x29E SWAP2 SWAP1 PUSH2 0x5B7 JUMP JUMPDEST SWAP3 POP POP POP SWAP1 JUMP JUMPDEST PUSH0 PUSH0 PUSH1 0xA SWAP1 POP PUSH0 PUSH1 0x3 SWAP1 POP DUP1 DUP3 PUSH2 0x2BC SWAP2 SWAP1 PUSH2 0x5EA JUMP JUMPDEST SWAP3 POP POP POP SWAP1 JUMP JUMPDEST PUSH0 PUSH0 PUSH1 0xA SWAP1 POP PUSH1 0x2 DUP2 PUSH2 0x2D6 SWAP2 SWAP1 PUSH2 0x587 JUMP JUMPDEST SWAP2 POP POP SWAP1 JUMP JUMPDEST PUSH0 DUP2 ISZERO ISZERO SWAP1 POP SWAP2 SWAP1 POP JUMP JUMPDEST PUSH2 0x2F0 DUP2 PUSH2 0x2DC JUMP JUMPDEST DUP3 MSTORE POP POP JUMP JUMPDEST PUSH0 PUSH1 0x20 DUP3 ADD SWAP1 POP PUSH2 0x309 PUSH0 DUP4 ADD DUP5 PUSH2 0x2E7 JUMP JUMPDEST SWAP3 SWAP2 POP POP JUMP JUMPDEST PUSH0 DUP2 SWAP1 POP SWAP2 SWAP1 POP JUMP JUMPDEST PUSH2 0x321 DUP2 PUSH2 0x30F JUMP JUMPDEST DUP3 MSTORE POP POP JUMP JUMPDEST PUSH0 PUSH1 0x20 DUP3 ADD SWAP1 POP PUSH2 0x33A PUSH0 DUP4 ADD DUP5 PUSH2 0x318 JUMP JUMPDEST SWAP3 SWAP2 POP POP JUMP JUMPDEST PUSH32 0x4E487B7100000000000000000000000000000000000000000000000000000000 PUSH0 MSTORE PUSH1 0x11 PUSH1 0x4 MSTORE PUSH1 0x24 PUSH0 REVERT JUMPDEST PUSH0 PUSH2 0x377 DUP3 PUSH2 0x30F JUMP JUMPDEST SWAP2 POP PUSH2 0x382 DUP4 PUSH2 0x30F JUMP JUMPDEST SWAP3 POP DUP3 DUP3 MUL PUSH2 0x390 DUP2 PUSH2 0x30F JUMP JUMPDEST SWAP2 POP DUP3 DUP3 DIV DUP5 EQ DUP4 ISZERO OR PUSH2 0x3A7 JUMPI PUSH2 0x3A6 PUSH2 0x340 JUMP JUMPDEST JUMPDEST POP SWAP3 SWAP2 POP POP JUMP JUMPDEST PUSH0 DUP2 PUSH1 0x1 SHR SWAP1 POP SWAP2 SWAP1 POP JUMP JUMPDEST PUSH0 PUSH0 DUP3 SWAP2 POP DUP4 SWAP1 POP JUMPDEST PUSH1 0x1 DUP6 GT ISZERO PUSH2 0x403 JUMPI DUP1 DUP7 DIV DUP2 GT ISZERO PUSH2 0x3DF JUMPI PUSH2 0x3DE PUSH2 0x340 JUMP JUMPDEST JUMPDEST PUSH1 0x1 DUP6 AND ISZERO PUSH2 0x3EE JUMPI DUP1 DUP3 MUL SWAP2 POP JUMPDEST DUP1 DUP2 MUL SWAP1 POP PUSH2 0x3FC DUP6 PUSH2 0x3AE JUMP JUMPDEST SWAP5 POP PUSH2 0x3C3 JUMP JUMPDEST SWAP5 POP SWAP5 SWAP3 POP POP POP JUMP JUMPDEST PUSH0 DUP3 PUSH2 0x41B JUMPI PUSH1 0x1 SWAP1 POP PUSH2 0x4D6 JUMP JUMPDEST DUP2 PUSH2 0x428 JUMPI PUSH0 SWAP1 POP PUSH2 0x4D6 JUMP JUMPDEST DUP2 PUSH1 0x1 DUP2 EQ PUSH2 0x43E JUMPI PUSH1 0x2 DUP2 EQ PUSH2 0x448 JUMPI PUSH2 0x477 JUMP JUMPDEST PUSH1 0x1 SWAP2 POP POP PUSH2 0x4D6 JUMP JUMPDEST PUSH1 0xFF DUP5 GT ISZERO PUSH2 0x45A JUMPI PUSH2 0x459 PUSH2 0x340 JUMP JUMPDEST JUMPDEST DUP4 PUSH1 0x2 EXP SWAP2 POP DUP5 DUP3 GT ISZERO PUSH2 0x471 JUMPI PUSH2 0x470 PUSH2 0x340 JUMP JUMPDEST JUMPDEST POP PUSH2 0x4D6 JUMP JUMPDEST POP PUSH1 0x20 DUP4 LT PUSH2 0x133 DUP4 LT AND PUSH1 0x4E DUP5 LT PUSH1 0xB DUP5 LT AND OR ISZERO PUSH2 0x4AC JUMPI DUP3 DUP3 EXP SWAP1 POP DUP4 DUP2 GT ISZERO PUSH2 0x4A7 JUMPI PUSH2 0x4A6 PUSH2 0x340 JUMP JUMPDEST JUMPDEST PUSH2 0x4D6 JUMP JUMPDEST PUSH2 0x4B9 DUP5 DUP5 DUP5 PUSH1 0x1 PUSH2 0x3BA JUMP JUMPDEST SWAP3 POP SWAP1 POP DUP2 DUP5 DIV DUP2 GT ISZERO PUSH2 0x4D0 JUMPI PUSH2 0x4CF PUSH2 0x340 JUMP JUMPDEST JUMPDEST DUP2 DUP2 MUL SWAP1 POP JUMPDEST SWAP4 SWAP3 POP POP POP JUMP JUMPDEST PUSH0 PUSH2 0x4E7 DUP3 PUSH2 0x30F JUMP JUMPDEST SWAP2 POP PUSH2 0x4F2 DUP4 PUSH2 0x30F JUMP JUMPDEST SWAP3 POP PUSH2 0x51F PUSH32 0xFFFFFFFFFFFFFFFFFFFFFFFFFFFFFFFFFFFFFFFFFFFFFFFFFFFFFFFFFFFFFFFF DUP5 DUP5 PUSH2 0x40C JUMP JUMPDEST SWAP1 POP SWAP3 SWAP2 POP POP JUMP JUMPDEST PUSH0 PUSH2 0x531 DUP3 PUSH2 0x30F JUMP JUMPDEST SWAP2 POP PUSH2 0x53C DUP4 PUSH2 0x30F JUMP JUMPDEST SWAP3 POP DUP3 DUP3 ADD SWAP1 POP DUP1 DUP3 GT ISZERO PUSH2 0x554 JUMPI PUSH2 0x553 PUSH2 0x340 JUMP JUMPDEST JUMPDEST SWAP3 SWAP2 POP POP JUMP JUMPDEST PUSH32 0x4E487B7100000000000000000000000000000000000000000000000000000000 PUSH0 MSTORE PUSH1 0x12 PUSH1 0x4 MSTORE PUSH1 0x24 PUSH0 REVERT JUMPDEST PUSH0 PUSH2 0x591 DUP3 PUSH2 0x30F JUMP JUMPDEST SWAP2 POP PUSH2 0x59C DUP4 PUSH2 0x30F JUMP JUMPDEST SWAP3 POP DUP3 PUSH2 0x5AC JUMPI PUSH2 0x5AB PUSH2 0x55A JUMP JUMPDEST JUMPDEST DUP3 DUP3 DIV SWAP1 POP SWAP3 SWAP2 POP POP JUMP JUMPDEST PUSH0 PUSH2 0x5C1 DUP3 PUSH2 0x30F JUMP JUMPDEST SWAP2 POP PUSH2 0x5CC DUP4 PUSH2 0x30F JUMP JUMPDEST SWAP3 POP DUP3 DUP3 SUB SWAP1 POP DUP2 DUP2 GT ISZERO PUSH2 0x5E4 JUMPI PUSH2 0x5E3 PUSH2 0x340 JUMP JUMPDEST JUMPDEST SWAP3 SWAP2 POP POP JUMP JUMPDEST PUSH0 PUSH2 0x5F4 DUP3 PUSH2 0x30F JUMP JUMPDEST SWAP2 POP PUSH2 0x5FF DUP4 PUSH2 0x30F JUMP JUMPDEST SWAP3 POP DUP3 PUSH2 0x60F JUMPI PUSH2 0x60E PUSH2 0x55A JUMP JUMPDEST JUMPDEST DUP3 DUP3 MOD SWAP1 POP SWAP3 SWAP2 POP POP JUMP INVALID LOG2 PUSH5 0x6970667358 0x22 SLT KECCAK256 PUSH28 0xE1D1EFCD276ED85D6F27B4E1D8D389EA0DDC5E77238221D8FDBF8D7 0xDA 0xCF 0xB1 PUSH5 0x736F6C6343 STOP ADDMOD 0x1E STOP CALLER "
				},
				"gasEstimates": {
					"creation": {
						"codeDepositCost": "323200",
						"executionCost": "360",
						"totalCost": "323560"
					},
					"external": {
						"Divide()": "infinite",
						"Modulo()": "infinite",
						"Multiply()": "infinite",
						"Substract()": "infinite",
						"add()": "infinite",
						"double()": "infinite",
						"half()": "infinite",
						"isEqual()": "390",
						"isGreater()": "369",
						"power()": "infinite"
					}
				},
				"methodIdentifiers": {
					"Divide()": "72b38ffc",
					"Modulo()": "efa31539",
					"Multiply()": "4799e6d8",
					"Substract()": "e04dd33c",
					"add()": "4f2be91f",
					"double()": "8fdb7189",
					"half()": "f6a6462c",
					"isEqual()": "acbe8452",
					"isGreater()": "1bdf0cdc",
					"power()": "4a4d59fa"
				}
			},
			"storageLayout": {
				"storage": [],
				"types": null
			},
			"userdoc": {
				"kind": "user",
				"methods": {},
				"version": 1
			}
		}
	}
}