{
	"data": {
		"bytecode": {
			"linkReferences": {},
			"object": "60806040526040518060600160405280602281526020016107f2602291395f908161002a9190610279565b50348015610036575f5ffd5b50610348565b5f81519050919050565b7f4e487b71000000000000000000000000000000000000000000000000000000005f52604160045260245ffd5b7f4e487b71000000000000000000000000000000000000000000000000000000005f52602260045260245ffd5b5f60028204905060018216806100b757607f821691505b6020821081036100ca576100c9610073565b5b50919050565b5f819050815f5260205f209050919050565b5f6020601f8301049050919050565b5f82821b905092915050565b5f6008830261012c7fffffffffffffffffffffffffffffffffffffffffffffffffffffffffffffffff826100f1565b61013686836100f1565b95508019841693508086168417925050509392505050565b5f819050919050565b5f819050919050565b5f61017a6101756101708461014e565b610157565b61014e565b9050919050565b5f819050919050565b61019383610160565b6101a761019f82610181565b8484546100fd565b825550505050565b5f5f905090565b6101be6101af565b6101c981848461018a565b505050565b5b818110156101ec576101e15f826101b6565b6001810190506101cf565b5050565b601f82111561023157610202816100d0565b61020b846100e2565b8101602085101561021a578190505b61022e610226856100e2565b8301826101ce565b50505b505050565b5f82821c905092915050565b5f6102515f1984600802610236565b1980831691505092915050565b5f6102698383610242565b9150826002028217905092915050565b6102828261003c565b67ffffffffffffffff81111561029b5761029a610046565b5b6102a582546100a0565b6102b08282856101f0565b5f60209050601f8311600181146102e1575f84156102cf578287015190505b6102d9858261025e565b865550610340565b601f1984166102ef866100d0565b5f5b82811015610316578489015182556001820191506020850194506020810190506102f1565b86831015610333578489015161032f601f891682610242565b8355505b6001600288020188555050505b505050505050565b61049d806103555f395ff3fe608060405234801561000f575f5ffd5b5060043610610029575f3560e01c8063bd70543c1461002d575b5f5ffd5b61003561004b565b60405161004291906100eb565b60405180910390f35b5f6101f460018190555060c860015f8282546100679190610131565b925050819055505f60025f6101000a81548160ff0219169083151502179055506040518060400160405280601881526020017f796f752068617665207370656e7420247b77616c6c65747d00000000000000008152505f90816100ca9190610398565b50600154905090565b5f819050919050565b6100e5816100d3565b82525050565b5f6020820190506100fe5f8301846100dc565b92915050565b7f4e487b71000000000000000000000000000000000000000000000000000000005f52601160045260245ffd5b5f61013b826100d3565b9150610146836100d3565b925082820390508181111561015e5761015d610104565b5b92915050565b5f81519050919050565b7f4e487b71000000000000000000000000000000000000000000000000000000005f52604160045260245ffd5b7f4e487b71000000000000000000000000000000000000000000000000000000005f52602260045260245ffd5b5f60028204905060018216806101df57607f821691505b6020821081036101f2576101f161019b565b5b50919050565b5f819050815f5260205f209050919050565b5f6020601f8301049050919050565b5f82821b905092915050565b5f600883026102547fffffffffffffffffffffffffffffffffffffffffffffffffffffffffffffffff82610219565b61025e8683610219565b95508019841693508086168417925050509392505050565b5f819050919050565b5f61029961029461028f846100d3565b610276565b6100d3565b9050919050565b5f819050919050565b6102b28361027f565b6102c66102be826102a0565b848454610225565b825550505050565b5f5f905090565b6102dd6102ce565b6102e88184846102a9565b505050565b5b8181101561030b576103005f826102d5565b6001810190506102ee565b5050565b601f82111561035057610321816101f8565b61032a8461020a565b81016020851015610339578190505b61034d6103458561020a565b8301826102ed565b50505b505050565b5f82821c905092915050565b5f6103705f1984600802610355565b1980831691505092915050565b5f6103888383610361565b9150826002028217905092915050565b6103a182610164565b67ffffffffffffffff8111156103ba576103b961016e565b5b6103c482546101c8565b6103cf82828561030f565b5f60209050601f831160018114610400575f84156103ee578287015190505b6103f8858261037d565b86555061045f565b601f19841661040e866101f8565b5f5b8281101561043557848901518255600182019150602085019450602081019050610410565b86831015610452578489015161044e601f891682610361565b8355505b6001600288020188555050505b50505050505056fea2646970667358221220013ae2c4fcc90bede1cd72b7c0810d43cd90d6a576b1a79cf19477e8255dd36f64736f6c634300081e003374686973207465787420686173206265656e206d6f64696669656420737472696e67",
			"opcodes": "PUSH1 0x80 PUSH1 0x40 MSTORE PUSH1 0x40 MLOAD DUP1 PUSH1 0x60 ADD PUSH1 0x40 MSTORE DUP1 PUSH1 0x22 DUP2 MSTORE PUSH1 0x20 ADD PUSH2 0x7F2 PUSH1 0x22 SWAP2 CODECOPY PUSH0 SWAP1 DUP2 PUSH2 0x2A SWAP2 SWAP1 PUSH2 0x279 JUMP JUMPDEST POP CALLVALUE DUP1 ISZERO PUSH2 0x36 JUMPI PUSH0 PUSH0 REVERT JUMPDEST POP PUSH2 0x348 JUMP JUMPDEST PUSH0 DUP2 MLOAD SWAP1 POP SWAP2 SWAP1 POP JUMP JUMPDEST PUSH32 0x4E487B7100000000000000000000000000000000000000000000000000000000 PUSH0 MSTORE PUSH1 0x41 PUSH1 0x4 MSTORE PUSH1 0x24 PUSH0 REVERT JUMPDEST PUSH32 0x4E487B7100000000000000000000000000000000000000000000000000000000 PUSH0 MSTORE PUSH1 0x22 PUSH1 0x4 MSTORE PUSH1 0x24 PUSH0 REVERT JUMPDEST PUSH0 PUSH1 0x2 DUP3 DIV SWAP1 POP PUSH1 0x1 DUP3 AND DUP1 PUSH2 0xB7 JUMPI PUSH1 0x7F DUP3 AND SWAP2 POP JUMPDEST PUSH1 0x20 DUP3 LT DUP2 SUB PUSH2 0xCA JUMPI PUSH2 0xC9 PUSH2 0x73 JUMP JUMPDEST JUMPDEST POP SWAP2 SWAP1 POP JUMP JUMPDEST PUSH0 DUP2 SWAP1 POP DUP2 PUSH0 MSTORE PUSH1 0x20 PUSH0 KECCAK256 SWAP1 POP SWAP2 SWAP1 POP JUMP JUMPDEST PUSH0 PUSH1 0x20 PUSH1 0x1F DUP4 ADD DIV SWAP1 POP SWAP2 SWAP1 POP JUMP JUMPDEST PUSH0 DUP3 DUP3 SHL SWAP1 POP SWAP3 SWAP2 POP POP JUMP JUMPDEST PUSH0 PUSH1 0x8 DUP4 MUL PUSH2 0x12C PUSH32 0xFFFFFFFFFFFFFFFFFFFFFFFFFFFFFFFFFFFFFFFFFFFFFFFFFFFFFFFFFFFFFFFF DUP3 PUSH2 0xF1 JUMP JUMPDEST PUSH2 0x136 DUP7 DUP4 PUSH2 0xF1 JUMP JUMPDEST SWAP6 POP DUP1 NOT DUP5 AND SWAP4 POP DUP1 DUP7 AND DUP5 OR SWAP3 POP POP POP SWAP4 SWAP3 POP POP POP JUMP JUMPDEST PUSH0 DUP2 SWAP1 POP SWAP2 SWAP1 POP JUMP JUMPDEST PUSH0 DUP2 SWAP1 POP SWAP2 SWAP1 POP JUMP JUMPDEST PUSH0 PUSH2 0x17A PUSH2 0x175 PUSH2 0x170 DUP5 PUSH2 0x14E JUMP JUMPDEST PUSH2 0x157 JUMP JUMPDEST PUSH2 0x14E JUMP JUMPDEST SWAP1 POP SWAP2 SWAP1 POP JUMP JUMPDEST PUSH0 DUP2 SWAP1 POP SWAP2 SWAP1 POP JUMP JUMPDEST PUSH2 0x193 DUP4 PUSH2 0x160 JUMP JUMPDEST PUSH2 0x1A7 PUSH2 0x19F DUP3 PUSH2 0x181 JUMP JUMPDEST DUP5 DUP5 SLOAD PUSH2 0xFD JUMP JUMPDEST DUP3 SSTORE POP POP POP POP JUMP JUMPDEST PUSH0 PUSH0 SWAP1 POP SWAP1 JUMP JUMPDEST PUSH2 0x1BE PUSH2 0x1AF JUMP JUMPDEST PUSH2 0x1C9 DUP2 DUP5 DUP5 PUSH2 0x18A JUMP JUMPDEST POP POP POP JUMP JUMPDEST JUMPDEST DUP2 DUP2 LT ISZERO PUSH2 0x1EC JUMPI PUSH2 0x1E1 PUSH0 DUP3 PUSH2 0x1B6 JUMP JUMPDEST PUSH1 0x1 DUP2 ADD SWAP1 POP PUSH2 0x1CF JUMP JUMPDEST POP POP JUMP JUMPDEST PUSH1 0x1F DUP3 GT ISZERO PUSH2 0x231 JUMPI PUSH2 0x202 DUP2 PUSH2 0xD0 JUMP JUMPDEST PUSH2 0x20B DUP5 PUSH2 0xE2 JUMP JUMPDEST DUP2 ADD PUSH1 0x20 DUP6 LT ISZERO PUSH2 0x21A JUMPI DUP2 SWAP1 POP JUMPDEST PUSH2 0x22E PUSH2 0x226 DUP6 PUSH2 0xE2 JUMP JUMPDEST DUP4 ADD DUP3 PUSH2 0x1CE JUMP JUMPDEST POP POP JUMPDEST POP POP POP JUMP JUMPDEST PUSH0 DUP3 DUP3 SHR SWAP1 POP SWAP3 SWAP2 POP POP JUMP JUMPDEST PUSH0 PUSH2 0x251 PUSH0 NOT DUP5 PUSH1 0x8 MUL PUSH2 0x236 JUMP JUMPDEST NOT DUP1 DUP4 AND SWAP2 POP POP SWAP3 SWAP2 POP POP JUMP JUMPDEST PUSH0 PUSH2 0x269 DUP4 DUP4 PUSH2 0x242 JUMP JUMPDEST SWAP2 POP DUP3 PUSH1 0x2 MUL DUP3 OR SWAP1 POP SWAP3 SWAP2 POP POP JUMP JUMPDEST PUSH2 0x282 DUP3 PUSH2 0x3C JUMP JUMPDEST PUSH8 0xFFFFFFFFFFFFFFFF DUP2 GT ISZERO PUSH2 0x29B JUMPI PUSH2 0x29A PUSH2 0x46 JUMP JUMPDEST JUMPDEST PUSH2 0x2A5 DUP3 SLOAD PUSH2 0xA0 JUMP JUMPDEST PUSH2 0x2B0 DUP3 DUP3 DUP6 PUSH2 0x1F0 JUMP JUMPDEST PUSH0 PUSH1 0x20 SWAP1 POP PUSH1 0x1F DUP4 GT PUSH1 0x1 DUP2 EQ PUSH2 0x2E1 JUMPI PUSH0 DUP5 ISZERO PUSH2 0x2CF JUMPI DUP3 DUP8 ADD MLOAD SWAP1 POP JUMPDEST PUSH2 0x2D9 DUP6 DUP3 PUSH2 0x25E JUMP JUMPDEST DUP7 SSTORE POP PUSH2 0x340 JUMP JUMPDEST PUSH1 0x1F NOT DUP5 AND PUSH2 0x2EF DUP7 PUSH2 0xD0 JUMP JUMPDEST PUSH0 JUMPDEST DUP3 DUP2 LT ISZERO PUSH2 0x316 JUMPI DUP5 DUP10 ADD MLOAD DUP3 SSTORE PUSH1 0x1 DUP3 ADD SWAP2 POP PUSH1 0x20 DUP6 ADD SWAP5 POP PUSH1 0x20 DUP2 ADD SWAP1 POP PUSH2 0x2F1 JUMP JUMPDEST DUP7 DUP4 LT ISZERO PUSH2 0x333 JUMPI DUP5 DUP10 ADD MLOAD PUSH2 0x32F PUSH1 0x1F DUP10 AND DUP3 PUSH2 0x242 JUMP JUMPDEST DUP4 SSTORE POP JUMPDEST PUSH1 0x1 PUSH1 0x2 DUP9 MUL ADD DUP9 SSTORE POP POP POP JUMPDEST POP POP POP POP POP POP JUMP JUMPDEST PUSH2 0x49D DUP1 PUSH2 0x355 PUSH0 CODECOPY PUSH0 RETURN INVALID PUSH1 0x80 PUSH1 0x40 MSTORE CALLVALUE DUP1 ISZERO PUSH2 0xF JUMPI PUSH0 PUSH0 REVERT JUMPDEST POP PUSH1 0x4 CALLDATASIZE LT PUSH2 0x29 JUMPI PUSH0 CALLDATALOAD PUSH1 0xE0 SHR DUP1 PUSH4 0xBD70543C EQ PUSH2 0x2D JUMPI JUMPDEST PUSH0 PUSH0 REVERT JUMPDEST PUSH2 0x35 PUSH2 0x4B JUMP JUMPDEST PUSH1 0x40 MLOAD PUSH2 0x42 SWAP2 SWAP1 PUSH2 0xEB JUMP JUMPDEST PUSH1 0x40 MLOAD DUP1 SWAP2 SUB SWAP1 RETURN JUMPDEST PUSH0 PUSH2 0x1F4 PUSH1 0x1 DUP2 SWAP1 SSTORE POP PUSH1 0xC8 PUSH1 0x1 PUSH0 DUP3 DUP3 SLOAD PUSH2 0x67 SWAP2 SWAP1 PUSH2 0x131 JUMP JUMPDEST SWAP3 POP POP DUP2 SWAP1 SSTORE POP PUSH0 PUSH1 0x2 PUSH0 PUSH2 0x100 EXP DUP2 SLOAD DUP2 PUSH1 0xFF MUL NOT AND SWAP1 DUP4 ISZERO ISZERO MUL OR SWAP1 SSTORE POP PUSH1 0x40 MLOAD DUP1 PUSH1 0x40 ADD PUSH1 0x40 MSTORE DUP1 PUSH1 0x18 DUP2 MSTORE PUSH1 0x20 ADD PUSH32 0x796F752068617665207370656E7420247B77616C6C65747D0000000000000000 DUP2 MSTORE POP PUSH0 SWAP1 DUP2 PUSH2 0xCA SWAP2 SWAP1 PUSH2 0x398 JUMP JUMPDEST POP PUSH1 0x1 SLOAD SWAP1 POP SWAP1 JUMP JUMPDEST PUSH0 DUP2 SWAP1 POP SWAP2 SWAP1 POP JUMP JUMPDEST PUSH2 0xE5 DUP2 PUSH2 0xD3 JUMP JUMPDEST DUP3 MSTORE POP POP JUMP JUMPDEST PUSH0 PUSH1 0x20 DUP3 ADD SWAP1 POP PUSH2 0xFE PUSH0 DUP4 ADD DUP5 PUSH2 0xDC JUMP JUMPDEST SWAP3 SWAP2 POP POP JUMP JUMPDEST PUSH32 0x4E487B7100000000000000000000000000000000000000000000000000000000 PUSH0 MSTORE PUSH1 0x11 PUSH1 0x4 MSTORE PUSH1 0x24 PUSH0 REVERT JUMPDEST PUSH0 PUSH2 0x13B DUP3 PUSH2 0xD3 JUMP JUMPDEST SWAP2 POP PUSH2 0x146 DUP4 PUSH2 0xD3 JUMP JUMPDEST SWAP3 POP DUP3 DUP3 SUB SWAP1 POP DUP2 DUP2 GT ISZERO PUSH2 0x15E JUMPI PUSH2 0x15D PUSH2 0x104 JUMP JUMPDEST JUMPDEST SWAP3 SWAP2 POP POP JUMP JUMPDEST PUSH0 DUP2 MLOAD SWAP1 POP SWAP2 SWAP1 POP JUMP JUMPDEST PUSH32 0x4E487B7100000000000000000000000000000000000000000000000000000000 PUSH0 MSTORE PUSH1 0x41 PUSH1 0x4 MSTORE PUSH1 0x24 PUSH0 REVERT JUMPDEST PUSH32 0x4E487B7100000000000000000000000000000000000000000000000000000000 PUSH0 MSTORE PUSH1 0x22 PUSH1 0x4 MSTORE PUSH1 0x24 PUSH0 REVERT JUMPDEST PUSH0 PUSH1 0x2 DUP3 DIV SWAP1 POP PUSH1 0x1 DUP3 AND DUP1 PUSH2 0x1DF JUMPI PUSH1 0x7F DUP3 AND SWAP2 POP JUMPDEST PUSH1 0x20 DUP3 LT DUP2 SUB PUSH2 0x1F2 JUMPI PUSH2 0x1F1 PUSH2 0x19B JUMP JUMPDEST JUMPDEST POP SWAP2 SWAP1 POP JUMP JUMPDEST PUSH0 DUP2 SWAP1 POP DUP2 PUSH0 MSTORE PUSH1 0x20 PUSH0 KECCAK256 SWAP1 POP SWAP2 SWAP1 POP JUMP JUMPDEST PUSH0 PUSH1 0x20 PUSH1 0x1F DUP4 ADD DIV SWAP1 POP SWAP2 SWAP1 POP JUMP JUMPDEST PUSH0 DUP3 DUP3 SHL SWAP1 POP SWAP3 SWAP2 POP POP JUMP JUMPDEST PUSH0 PUSH1 0x8 DUP4 MUL PUSH2 0x254 PUSH32 0xFFFFFFFFFFFFFFFFFFFFFFFFFFFFFFFFFFFFFFFFFFFFFFFFFFFFFFFFFFFFFFFF DUP3 PUSH2 0x219 JUMP JUMPDEST PUSH2 0x25E DUP7 DUP4 PUSH2 0x219 JUMP JUMPDEST SWAP6 POP DUP1 NOT DUP5 AND SWAP4 POP DUP1 DUP7 AND DUP5 OR SWAP3 POP POP POP SWAP4 SWAP3 POP POP POP JUMP JUMPDEST PUSH0 DUP2 SWAP1 POP SWAP2 SWAP1 POP JUMP JUMPDEST PUSH0 PUSH2 0x299 PUSH2 0x294 PUSH2 0x28F DUP5 PUSH2 0xD3 JUMP JUMPDEST PUSH2 0x276 JUMP JUMPDEST PUSH2 0xD3 JUMP JUMPDEST SWAP1 POP SWAP2 SWAP1 POP JUMP JUMPDEST PUSH0 DUP2 SWAP1 POP SWAP2 SWAP1 POP JUMP JUMPDEST PUSH2 0x2B2 DUP4 PUSH2 0x27F JUMP JUMPDEST PUSH2 0x2C6 PUSH2 0x2BE DUP3 PUSH2 0x2A0 JUMP JUMPDEST DUP5 DUP5 SLOAD PUSH2 0x225 JUMP JUMPDEST DUP3 SSTORE POP POP POP POP JUMP JUMPDEST PUSH0 PUSH0 SWAP1 POP SWAP1 JUMP JUMPDEST PUSH2 0x2DD PUSH2 0x2CE JUMP JUMPDEST PUSH2 0x2E8 DUP2 DUP5 DUP5 PUSH2 0x2A9 JUMP JUMPDEST POP POP POP JUMP JUMPDEST JUMPDEST DUP2 DUP2 LT ISZERO PUSH2 0x30B JUMPI PUSH2 0x300 PUSH0 DUP3 PUSH2 0x2D5 JUMP JUMPDEST PUSH1 0x1 DUP2 ADD SWAP1 POP PUSH2 0x2EE JUMP JUMPDEST POP POP JUMP JUMPDEST PUSH1 0x1F DUP3 GT ISZERO PUSH2 0x350 JUMPI PUSH2 0x321 DUP2 PUSH2 0x1F8 JUMP JUMPDEST PUSH2 0x32A DUP5 PUSH2 0x20A JUMP JUMPDEST DUP2 ADD PUSH1 0x20 DUP6 LT ISZERO PUSH2 0x339 JUMPI DUP2 SWAP1 POP JUMPDEST PUSH2 0x34D PUSH2 0x345 DUP6 PUSH2 0x20A JUMP JUMPDEST DUP4 ADD DUP3 PUSH2 0x2ED JUMP JUMPDEST POP POP JUMPDEST POP POP POP JUMP JUMPDEST PUSH0 DUP3 DUP3 SHR SWAP1 POP SWAP3 SWAP2 POP POP JUMP JUMPDEST PUSH0 PUSH2 0x370 PUSH0 NOT DUP5 PUSH1 0x8 MUL PUSH2 0x355 JUMP JUMPDEST NOT DUP1 DUP4 AND SWAP2 POP POP SWAP3 SWAP2 POP POP JUMP JUMPDEST PUSH0 PUSH2 0x388 DUP4 DUP4 PUSH2 0x361 JUMP JUMPDEST SWAP2 POP DUP3 PUSH1 0x2 MUL DUP3 OR SWAP1 POP SWAP3 SWAP2 POP POP JUMP JUMPDEST PUSH2 0x3A1 DUP3 PUSH2 0x164 JUMP JUMPDEST PUSH8 0xFFFFFFFFFFFFFFFF DUP2 GT ISZERO PUSH2 0x3BA JUMPI PUSH2 0x3B9 PUSH2 0x16E JUMP JUMPDEST JUMPDEST PUSH2 0x3C4 DUP3 SLOAD PUSH2 0x1C8 JUMP JUMPDEST PUSH2 0x3CF DUP3 DUP3 DUP6 PUSH2 0x30F JUMP JUMPDEST PUSH0 PUSH1 0x20 SWAP1 POP PUSH1 0x1F DUP4 GT PUSH1 0x1 DUP2 EQ PUSH2 0x400 JUMPI PUSH0 DUP5 ISZERO PUSH2 0x3EE JUMPI DUP3 DUP8 ADD MLOAD SWAP1 POP JUMPDEST PUSH2 0x3F8 DUP6 DUP3 PUSH2 0x37D JUMP JUMPDEST DUP7 SSTORE POP PUSH2 0x45F JUMP JUMPDEST PUSH1 0x1F NOT DUP5 AND PUSH2 0x40E DUP7 PUSH2 0x1F8 JUMP JUMPDEST PUSH0 JUMPDEST DUP3 DUP2 LT ISZERO PUSH2 0x435 JUMPI DUP5 DUP10 ADD MLOAD DUP3 SSTORE PUSH1 0x1 DUP3 ADD SWAP2 POP PUSH1 0x20 DUP6 ADD SWAP5 POP PUSH1 0x20 DUP2 ADD SWAP1 POP PUSH2 0x410 JUMP JUMPDEST DUP7 DUP4 LT ISZERO PUSH2 0x452 JUMPI DUP5 DUP10 ADD MLOAD PUSH2 0x44E PUSH1 0x1F DUP10 AND DUP3 PUSH2 0x361 JUMP JUMPDEST DUP4 SSTORE POP JUMPDEST PUSH1 0x1 PUSH1 0x2 DUP9 MUL ADD DUP9 SSTORE POP POP POP JUMPDEST POP POP POP POP POP POP JUMP INVALID LOG2 PUSH5 0x6970667358 0x22 SLT KECCAK256 ADD GASPRICE 0xE2 0xC4 0xFC 0xC9 SIGNEXTEND 0xED RJUMPI 0xCD72 0xB7 0xC0 DUP2 0xD NUMBER 0xCD SWAP1 0xD6 0xA5 PUSH23 0xB1A79CF19477E8255DD36F64736F6C634300081E003374 PUSH9 0x697320746578742068 PUSH2 0x7320 PUSH3 0x65656E KECCAK256 PUSH14 0x6F64696669656420737472696E67 "
		},
		"gasEstimates": {
			"creation": {
				"codeDepositCost": "236200",
				"executionCost": "infinite",
				"totalCost": "infinite"
			},
			"external": {
				"notifySpending()": "infinite"
			}
		},
		"methodIdentifiers": {
			"notifySpending()": "bd70543c"
		}
	},
	"abi": [
		{
			"inputs": [],
			"name": "notifySpending",
			"outputs": [
				{
					"internalType": "uint256",
					"name": "",
					"type": "uint256"
				}
			],
			"stateMutability": "nonpayable",
			"type": "function"
		}
	]
}