{
	"data": {
		"bytecode": {
			"linkReferences": {},
			"object": "6080604052348015600e575f5ffd5b506106508061001c5f395ff3fe608060405234801561000f575f5ffd5b506004361061009c575f3560e01c80638fdb7189116100645780638fdb718914610136578063acbe845214610154578063e04dd33c14610172578063efa3153914610190578063f6a6462c146101ae5761009c565b80631bdf0cdc146100a05780634799e6d8146100be5780634a4d59fa146100dc5780634f2be91f146100fa57806372b38ffc14610118575b5f5ffd5b6100a86101cc565b6040516100b591906102f6565b60405180910390f35b6100c66101e1565b6040516100d39190610327565b60405180910390f35b6100e46101ff565b6040516100f19190610327565b60405180910390f35b61010261021d565b60405161010f9190610327565b60405180910390f35b61012061023b565b60405161012d9190610327565b60405180910390f35b61013e610259565b60405161014b9190610327565b60405180910390f35b61015c610272565b60405161016991906102f6565b60405180910390f35b61017a610287565b6040516101879190610327565b60405180910390f35b6101986102a5565b6040516101a59190610327565b60405180910390f35b6101b66102c3565b6040516101c39190610327565b60405180910390f35b5f5f600590505f600190508082119250505090565b5f5f600390505f6006905080826101f8919061036d565b9250505090565b5f5f600290505f60039050808261021691906104dd565b9250505090565b5f5f600190505f6002905080826102349190610527565b9250505090565b5f5f603290505f6002905080826102529190610587565b9250505090565b5f5f6009905060028161026c919061036d565b91505090565b5f5f600390505f600390508082149250505090565b5f5f600590505f600a9050808261029e91906105b7565b9250505090565b5f5f600a90505f6003905080826102bc91906105ea565b9250505090565b5f5f600a90506002816102d69190610587565b91505090565b5f8115159050919050565b6102f0816102dc565b82525050565b5f6020820190506103095f8301846102e7565b92915050565b5f819050919050565b6103218161030f565b82525050565b5f60208201905061033a5f830184610318565b92915050565b7f4e487b71000000000000000000000000000000000000000000000000000000005f52601160045260245ffd5b5f6103778261030f565b91506103828361030f565b92508282026103908161030f565b915082820484148315176103a7576103a6610340565b5b5092915050565b5f8160011c9050919050565b5f5f8291508390505b6001851115610403578086048111156103df576103de610340565b5b60018516156103ee5780820291505b80810290506103fc856103ae565b94506103c3565b94509492505050565b5f8261041b57600190506104d6565b81610428575f90506104d6565b816001811461043e576002811461044857610477565b60019150506104d6565b60ff84111561045a57610459610340565b5b8360020a91508482111561047157610470610340565b5b506104d6565b5060208310610133831016604e8410600b84101617156104ac5782820a9050838111156104a7576104a6610340565b5b6104d6565b6104b984848460016103ba565b925090508184048111156104d0576104cf610340565b5b81810290505b9392505050565b5f6104e78261030f565b91506104f28361030f565b925061051f7fffffffffffffffffffffffffffffffffffffffffffffffffffffffffffffffff848461040c565b905092915050565b5f6105318261030f565b915061053c8361030f565b925082820190508082111561055457610553610340565b5b92915050565b7f4e487b71000000000000000000000000000000000000000000000000000000005f52601260045260245ffd5b5f6105918261030f565b915061059c8361030f565b9250826105ac576105ab61055a565b5b828204905092915050565b5f6105c18261030f565b91506105cc8361030f565b92508282039050818111156105e4576105e3610340565b5b92915050565b5f6105f48261030f565b91506105ff8361030f565b92508261060f5761060e61055a565b5b82820690509291505056fea26469706673582212207b0e1d1efcd276ed85d6f27b4e1d8d389ea0ddc5e77238221d8fdbf8d7dacfb164736f6c634300081e0033",
			"opcodes": "PUSH1 0x80 PUSH1 0x40 MSTORE CALLVALUE DUP1 ISZERO PUSH1 0xE JUMPI PUSH0 PUSH0 REVERT JUMPDEST POP PUSH2 0x650 DUP1 PUSH2 0x1C PUSH0 CODECOPY PUSH0 RETURN INVALID PUSH1 0x80 PUSH1 0x40 MSTORE CALLVALUE DUP1 ISZERO PUSH2 0xF JUMPI PUSH0 PUSH0 REVERT JUMPDEST POP PUSH1 0x4 CALLDATASIZE LT PUSH2 0x9C JUMPI PUSH0 CALLDATALOAD PUSH1 0xE0 SHR DUP1 PUSH4 0x8FDB7189 GT PUSH2 0x64 JUMPI DUP1 PUSH4 0x8FDB7189 EQ PUSH2 0x136 JUMPI DUP1 PUSH4 0xACBE8452 EQ PUSH2 0x154 JUMPI DUP1 PUSH4 0xE04DD33C EQ PUSH2 0x172 JUMPI DUP1 PUSH4 0xEFA31539 EQ PUSH2 0x190 JUMPI DUP1 PUSH4 0xF6A6462C EQ PUSH2 0x1AE JUMPI PUSH2 0x9C JUMP JUMPDEST DUP1 PUSH4 0x1BDF0CDC EQ PUSH2 0xA0 JUMPI DUP1 PUSH4 0x4799E6D8 EQ PUSH2 0xBE JUMPI DUP1 PUSH4 0x4A4D59FA EQ PUSH2 0xDC JUMPI DUP1 PUSH4 0x4F2BE91F EQ PUSH2 0xFA JUMPI DUP1 PUSH4 0x72B38FFC EQ PUSH2 0x118 JUMPI JUMPDEST PUSH0 PUSH0 REVERT JUMPDEST PUSH2 0xA8 PUSH2 0x1CC JUMP JUMPDEST PUSH1 0x40 MLOAD PUSH2 0xB5 SWAP2 SWAP1 PUSH2 0x2F6 JUMP JUMPDEST PUSH1 0x40 MLOAD DUP1 SWAP2 SUB SWAP1 RETURN JUMPDEST PUSH2 0xC6 PUSH2 0x1E1 JUMP JUMPDEST PUSH1 0x40 MLOAD PUSH2 0xD3 SWAP2 SWAP1 PUSH2 0x327 JUMP JUMPDEST PUSH1 0x40 MLOAD DUP1 SWAP2 SUB SWAP1 RETURN JUMPDEST PUSH2 0xE4 PUSH2 0x1FF JUMP JUMPDEST PUSH1 0x40 MLOAD PUSH2 0xF1 SWAP2 SWAP1 PUSH2 0x327 JUMP JUMPDEST PUSH1 0x40 MLOAD DUP1 SWAP2 SUB SWAP1 RETURN JUMPDEST PUSH2 0x102 PUSH2 0x21D JUMP JUMPDEST PUSH1 0x40 MLOAD PUSH2 0x10F SWAP2 SWAP1 PUSH2 0x327 JUMP JUMPDEST PUSH1 0x40 MLOAD DUP1 SWAP2 SUB SWAP1 RETURN JUMPDEST PUSH2 0x120 PUSH2 0x23B JUMP JUMPDEST PUSH1 0x40 MLOAD PUSH2 0x12D SWAP2 SWAP1 PUSH2 0x327 JUMP JUMPDEST PUSH1 0x40 MLOAD DUP1 SWAP2 SUB SWAP1 RETURN JUMPDEST PUSH2 0x13E PUSH2 0x259 JUMP JUMPDEST PUSH1 0x40 MLOAD PUSH2 0x14B SWAP2 SWAP1 PUSH2 0x327 JUMP JUMPDEST PUSH1 0x40 MLOAD DUP1 SWAP2 SUB SWAP1 RETURN JUMPDEST PUSH2 0x15C PUSH2 0x272 JUMP JUMPDEST PUSH1 0x40 MLOAD PUSH2 0x169 SWAP2 SWAP1 PUSH2 0x2F6 JUMP JUMPDEST PUSH1 0x40 MLOAD DUP1 SWAP2 SUB SWAP1 RETURN JUMPDEST PUSH2 0x17A PUSH2 0x287 JUMP JUMPDEST PUSH1 0x40 MLOAD PUSH2 0x187 SWAP2 SWAP1 PUSH2 0x327 JUMP JUMPDEST PUSH1 0x40 MLOAD DUP1 SWAP2 SUB SWAP1 RETURN JUMPDEST PUSH2 0x198 PUSH2 0x2A5 JUMP JUMPDEST PUSH1 0x40 MLOAD PUSH2 0x1A5 SWAP2 SWAP1 PUSH2 0x327 JUMP JUMPDEST PUSH1 0x40 MLOAD DUP1 SWAP2 SUB SWAP1 RETURN JUMPDEST PUSH2 0x1B6 PUSH2 0x2C3 JUMP JUMPDEST PUSH1 0x40 MLOAD PUSH2 0x1C3 SWAP2 SWAP1 PUSH2 0x327 JUMP JUMPDEST PUSH1 0x40 MLOAD DUP1 SWAP2 SUB SWAP1 RETURN JUMPDEST PUSH0 PUSH0 PUSH1 0x5 SWAP1 POP PUSH0 PUSH1 0x1 SWAP1 POP DUP1 DUP3 GT SWAP3 POP POP POP SWAP1 JUMP JUMPDEST PUSH0 PUSH0 PUSH1 0x3 SWAP1 POP PUSH0 PUSH1 0x6 SWAP1 POP DUP1 DUP3 PUSH2 0x1F8 SWAP2 SWAP1 PUSH2 0x36D JUMP JUMPDEST SWAP3 POP POP POP SWAP1 JUMP JUMPDEST PUSH0 PUSH0 PUSH1 0x2 SWAP1 POP PUSH0 PUSH1 0x3 SWAP1 POP DUP1 DUP3 PUSH2 0x216 SWAP2 SWAP1 PUSH2 0x4DD JUMP JUMPDEST SWAP3 POP POP POP SWAP1 JUMP JUMPDEST PUSH0 PUSH0 PUSH1 0x1 SWAP1 POP PUSH0 PUSH1 0x2 SWAP1 POP DUP1 DUP3 PUSH2 0x234 SWAP2 SWAP1 PUSH2 0x527 JUMP JUMPDEST SWAP3 POP POP POP SWAP1 JUMP JUMPDEST PUSH0 PUSH0 PUSH1 0x32 SWAP1 POP PUSH0 PUSH1 0x2 SWAP1 POP DUP1 DUP3 PUSH2 0x252 SWAP2 SWAP1 PUSH2 0x587 JUMP JUMPDEST SWAP3 POP POP POP SWAP1 JUMP JUMPDEST PUSH0 PUSH0 PUSH1 0x9 SWAP1 POP PUSH1 0x2 DUP2 PUSH2 0x26C SWAP2 SWAP1 PUSH2 0x36D JUMP JUMPDEST SWAP2 POP POP SWAP1 JUMP JUMPDEST PUSH0 PUSH0 PUSH1 0x3 SWAP1 POP PUSH0 PUSH1 0x3 SWAP1 POP DUP1 DUP3 EQ SWAP3 POP POP POP SWAP1 JUMP JUMPDEST PUSH0 PUSH0 PUSH1 0x5 SWAP1 POP PUSH0 PUSH1 0xA SWAP1 POP DUP1 DUP3 PUSH2 0x29E SWAP2 SWAP1 PUSH2 0x5B7 JUMP JUMPDEST SWAP3 POP POP POP SWAP1 JUMP JUMPDEST PUSH0 PUSH0 PUSH1 0xA SWAP1 POP PUSH0 PUSH1 0x3 SWAP1 POP DUP1 DUP3 PUSH2 0x2BC SWAP2 SWAP1 PUSH2 0x5EA JUMP JUMPDEST SWAP3 POP POP POP SWAP1 JUMP JUMPDEST PUSH0 PUSH0 PUSH1 0xA SWAP1 POP PUSH1 0x2 DUP2 PUSH2 0x2D6 SWAP2 SWAP1 PUSH2 0x587 JUMP JUMPDEST SWAP2 POP POP SWAP1 JUMP JUMPDEST PUSH0 DUP2 ISZERO ISZERO SWAP1 POP SWAP2 SWAP1 POP JUMP JUMPDEST PUSH2 0x2F0 DUP2 PUSH2 0x2DC JUMP JUMPDEST DUP3 MSTORE POP POP JUMP JUMPDEST PUSH0 PUSH1 0x20 DUP3 ADD SWAP1 POP PUSH2 0x309 PUSH0 DUP4 ADD DUP5 PUSH2 0x2E7 JUMP JUMPDEST SWAP3 SWAP2 POP POP JUMP JUMPDEST PUSH0 DUP2 SWAP1 POP SWAP2 SWAP1 POP JUMP JUMPDEST PUSH2 0x321 DUP2 PUSH2 0x30F JUMP JUMPDEST DUP3 MSTORE POP POP JUMP JUMPDEST PUSH0 PUSH1 0x20 DUP3 ADD SWAP1 POP PUSH2 0x33A PUSH0 DUP4 ADD DUP5 PUSH2 0x318 JUMP JUMPDEST SWAP3 SWAP2 POP POP JUMP JUMPDEST PUSH32 0x4E487B7100000000000000000000000000000000000000000000000000000000 PUSH0 MSTORE PUSH1 0x11 PUSH1 0x4 MSTORE PUSH1 0x24 PUSH0 REVERT JUMPDEST PUSH0 PUSH2 0x377 DUP3 PUSH2 0x30F JUMP JUMPDEST SWAP2 POP PUSH2 0x382 DUP4 PUSH2 0x30F JUMP JUMPDEST SWAP3 POP DUP3 DUP3 MUL PUSH2 0x390 DUP2 PUSH2 0x30F JUMP JUMPDEST SWAP2 POP DUP3 DUP3 DIV DUP5 EQ DUP4 ISZERO OR PUSH2 0x3A7 JUMPI PUSH2 0x3A6 PUSH2 0x340 JUMP JUMPDEST JUMPDEST POP SWAP3 SWAP2 POP POP JUMP JUMPDEST PUSH0 DUP2 PUSH1 0x1 SHR SWAP1 POP SWAP2 SWAP1 POP JUMP JUMPDEST PUSH0 PUSH0 DUP3 SWAP2 POP DUP4 SWAP1 POP JUMPDEST PUSH1 0x1 DUP6 GT ISZERO PUSH2 0x403 JUMPI DUP1 DUP7 DIV DUP2 GT ISZERO PUSH2 0x3DF JUMPI PUSH2 0x3DE PUSH2 0x340 JUMP JUMPDEST JUMPDEST PUSH1 0x1 DUP6 AND ISZERO PUSH2 0x3EE JUMPI DUP1 DUP3 MUL SWAP2 POP JUMPDEST DUP1 DUP2 MUL SWAP1 POP PUSH2 0x3FC DUP6 PUSH2 0x3AE JUMP JUMPDEST SWAP5 POP PUSH2 0x3C3 JUMP JUMPDEST SWAP5 POP SWAP5 SWAP3 POP POP POP JUMP JUMPDEST PUSH0 DUP3 PUSH2 0x41B JUMPI PUSH1 0x1 SWAP1 POP PUSH2 0x4D6 JUMP JUMPDEST DUP2 PUSH2 0x428 JUMPI PUSH0 SWAP1 POP PUSH2 0x4D6 JUMP JUMPDEST DUP2 PUSH1 0x1 DUP2 EQ PUSH2 0x43E JUMPI PUSH1 0x2 DUP2 EQ PUSH2 0x448 JUMPI PUSH2 0x477 JUMP JUMPDEST PUSH1 0x1 SWAP2 POP POP PUSH2 0x4D6 JUMP JUMPDEST PUSH1 0xFF DUP5 GT ISZERO PUSH2 0x45A JUMPI PUSH2 0x459 PUSH2 0x340 JUMP JUMPDEST JUMPDEST DUP4 PUSH1 0x2 EXP SWAP2 POP DUP5 DUP3 GT ISZERO PUSH2 0x471 JUMPI PUSH2 0x470 PUSH2 0x340 JUMP JUMPDEST JUMPDEST POP PUSH2 0x4D6 JUMP JUMPDEST POP PUSH1 0x20 DUP4 LT PUSH2 0x133 DUP4 LT AND PUSH1 0x4E DUP5 LT PUSH1 0xB DUP5 LT AND OR ISZERO PUSH2 0x4AC JUMPI DUP3 DUP3 EXP SWAP1 POP DUP4 DUP2 GT ISZERO PUSH2 0x4A7 JUMPI PUSH2 0x4A6 PUSH2 0x340 JUMP JUMPDEST JUMPDEST PUSH2 0x4D6 JUMP JUMPDEST PUSH2 0x4B9 DUP5 DUP5 DUP5 PUSH1 0x1 PUSH2 0x3BA JUMP JUMPDEST SWAP3 POP SWAP1 POP DUP2 DUP5 DIV DUP2 GT ISZERO PUSH2 0x4D0 JUMPI PUSH2 0x4CF PUSH2 0x340 JUMP JUMPDEST JUMPDEST DUP2 DUP2 MUL SWAP1 POP JUMPDEST SWAP4 SWAP3 POP POP POP JUMP JUMPDEST PUSH0 PUSH2 0x4E7 DUP3 PUSH2 0x30F JUMP JUMPDEST SWAP2 POP PUSH2 0x4F2 DUP4 PUSH2 0x30F JUMP JUMPDEST SWAP3 POP PUSH2 0x51F PUSH32 0xFFFFFFFFFFFFFFFFFFFFFFFFFFFFFFFFFFFFFFFFFFFFFFFFFFFFFFFFFFFFFFFF DUP5 DUP5 PUSH2 0x40C JUMP JUMPDEST SWAP1 POP SWAP3 SWAP2 POP POP JUMP JUMPDEST PUSH0 PUSH2 0x531 DUP3 PUSH2 0x30F JUMP JUMPDEST SWAP2 POP PUSH2 0x53C DUP4 PUSH2 0x30F JUMP JUMPDEST SWAP3 POP DUP3 DUP3 ADD SWAP1 POP DUP1 DUP3 GT ISZERO PUSH2 0x554 JUMPI PUSH2 0x553 PUSH2 0x340 JUMP JUMPDEST JUMPDEST SWAP3 SWAP2 POP POP JUMP JUMPDEST PUSH32 0x4E487B7100000000000000000000000000000000000000000000000000000000 PUSH0 MSTORE PUSH1 0x12 PUSH1 0x4 MSTORE PUSH1 0x24 PUSH0 REVERT JUMPDEST PUSH0 PUSH2 0x591 DUP3 PUSH2 0x30F JUMP JUMPDEST SWAP2 POP PUSH2 0x59C DUP4 PUSH2 0x30F JUMP JUMPDEST SWAP3 POP DUP3 PUSH2 0x5AC JUMPI PUSH2 0x5AB PUSH2 0x55A JUMP JUMPDEST JUMPDEST DUP3 DUP3 DIV SWAP1 POP SWAP3 SWAP2 POP POP JUMP JUMPDEST PUSH0 PUSH2 0x5C1 DUP3 PUSH2 0x30F JUMP JUMPDEST SWAP2 POP PUSH2 0x5CC DUP4 PUSH2 0x30F JUMP JUMPDEST SWAP3 POP DUP3 DUP3 SUB SWAP1 POP DUP2 DUP2 GT ISZERO PUSH2 0x5E4 JUMPI PUSH2 0x5E3 PUSH2 0x340 JUMP JUMPDEST JUMPDEST SWAP3 SWAP2 POP POP JUMP JUMPDEST PUSH0 PUSH2 0x5F4 DUP3 PUSH2 0x30F JUMP JUMPDEST SWAP2 POP PUSH2 0x5FF DUP4 PUSH2 0x30F JUMP JUMPDEST SWAP3 POP DUP3 PUSH2 0x60F JUMPI PUSH2 0x60E PUSH2 0x55A JUMP JUMPDEST JUMPDEST DUP3 DUP3 MOD SWAP1 POP SWAP3 SWAP2 POP POP JUMP INVALID LOG2 PUSH5 0x6970667358 0x22 SLT KECCAK256 PUSH28 0xE1D1EFCD276ED85D6F27B4E1D8D389EA0DDC5E77238221D8FDBF8D7 0xDA 0xCF 0xB1 PUSH5 0x736F6C6343 STOP ADDMOD 0x1E STOP CALLER "
		},
		"gasEstimates": {
			"creation": {
				"codeDepositCost": "323200",
				"executionCost": "360",
				"totalCost": "323560"
			},
			"external": {
				"Divide()": "infinite",
				"Modulo()": "infinite",
				"Multiply()": "infinite",
				"Substract()": "infinite",
				"add()": "infinite",
				"double()": "infinite",
				"half()": "infinite",
				"isEqual()": "390",
				"isGreater()": "369",
				"power()": "infinite"
			}
		},
		"methodIdentifiers": {
			"Divide()": "72b38ffc",
			"Modulo()": "efa31539",
			"Multiply()": "4799e6d8",
			"Substract()": "e04dd33c",
			"add()": "4f2be91f",
			"double()": "8fdb7189",
			"half()": "f6a6462c",
			"isEqual()": "acbe8452",
			"isGreater()": "1bdf0cdc",
			"power()": "4a4d59fa"
		}
	},
	"abi": [
		{
			"inputs": [],
			"name": "Divide",
			"outputs": [
				{
					"internalType": "uint256",
					"name": "",
					"type": "uint256"
				}
			],
			"stateMutability": "pure",
			"type": "function"
		},
		{
			"inputs": [],
			"name": "Modulo",
			"outputs": [
				{
					"internalType": "uint256",
					"name": "",
					"type": "uint256"
				}
			],
			"stateMutability": "pure",
			"type": "function"
		},
		{
			"inputs": [],
			"name": "Multiply",
			"outputs": [
				{
					"internalType": "uint256",
					"name": "",
					"type": "uint256"
				}
			],
			"stateMutability": "pure",
			"type": "function"
		},
		{
			"inputs": [],
			"name": "Substract",
			"outputs": [
				{
					"internalType": "uint256",
					"name": "",
					"type": "uint256"
				}
			],
			"stateMutability": "pure",
			"type": "function"
		},
		{
			"inputs": [],
			"name": "add",
			"outputs": [
				{
					"internalType": "uint256",
					"name": "",
					"type": "uint256"
				}
			],
			"stateMutability": "pure",
			"type": "function"
		},
		{
			"inputs": [],
			"name": "double",
			"outputs": [
				{
					"internalType": "uint256",
					"name": "",
					"type": "uint256"
				}
			],
			"stateMutability": "pure",
			"type": "function"
		},
		{
			"inputs": [],
			"name": "half",
			"outputs": [
				{
					"internalType": "uint256",
					"name": "",
					"type": "uint256"
				}
			],
			"stateMutability": "pure",
			"type": "function"
		},
		{
			"inputs": [],
			"name": "isEqual",
			"outputs": [
				{
					"internalType": "bool",
					"name": "",
					"type": "bool"
				}
			],
			"stateMutability": "pure",
			"type": "function"
		},
		{
			"inputs": [],
			"name": "isGreater",
			"outputs": [
				{
					"internalType": "bool",
					"name": "",
					"type": "bool"
				}
			],
			"stateMutability": "pure",
			"type": "function"
		},
		{
			"inputs": [],
			"name": "power",
			"outputs": [
				{
					"internalType": "uint256",
					"name": "",
					"type": "uint256"
				}
			],
			"stateMutability": "pure",
			"type": "function"
		}
	]
}